:0400000054EF00F0C9
:060008005582E0EF0FF04D
:100018005580D8CF03F0E8CF04F0E0CF05F00E010B
:1000280033AB19EF00F01BEF00F024EF00F00001F4
:10003800A34BA42B090ED46EC30ED36E0E01339BB3
:10004800050E0001A319A411D8A42DEF00F02FEF7D
:1000580000F040EF00F07CAE34EF00F038EF00F035
:10006800026A022A39EF00F0026A023202327C5038
:1000780002187F0B02187C6E050E0001A119A2114F
:10008800D8A449EF00F04BEF00F04CEF00F0808669
:1000980005C0E0FF04C0E8FF03C0D8FF559010007A
:0400A800E3EF0EF084
:100E00000000000000DCCFD1350000000000C0155C
:100E10003F6042A20D70A5EC363BAAB83F4F387632
:100E20003F3CAA38338CBEBF350072313F18723157
:100E30003F4CBB31330EEADDB555B38A38610B3612
:100E4000BBABAA2A3E42F1533E55326C3E05A38B02
:100E50003EABAAAA3EB76DDB3E9A99193F6042A20B
:100E60000DCAF249710000804B0000803F0000C0B5
:100E70003F00AAB83FC623F6B80040763F25643A43
:100E800025643A25642025642D25642D25642000E1
:010E90000061
:100E920023C039F024C03AF025C03BF026C03CF014
:100EA20027C03DF028C03EF029C03FF02AC040F0E4
:100EB20040BE5EEF07F061EF07F0010E62EF07F050
:100EC200000E416E4150D8B469EF07F06BEF07F0A6
:100ED2007BEF07F0401E3F1E3E1E3D1E3C1E3B1E8A
:100EE2003A1E396C000E3A223B223C223D223E221F
:100EF2003F22402253BE88EF07F0535006E15204CE
:100F0200D8B086EF07F088EF07F08EEF07F0000EFB
:100F1200366E010E356E92EF07F052C035F053C0B7
:100F220036F050C037F051C038F04150D8B49CEF81
:100F320007F09EEF07F0B5EF07F03706D8A03806A6
:100F42004150D8A4A7EF07F0A9EF07F0AFEF07F0E1
:100F5200000E346E2B0E336EB3EF07F0000E346EBC
:100F62002D0E336E33C041F0000E436E1F0E426EE3
:100F7200000E0101896F3AEF08F04206D8A043063D
:100F82006A0E4224D96E010E4320DA6E39C006F091
:100F92003AC007F03BC008F03CC009F03DC00AF07F
:100FA2003EC00BF03FC00CF040C00DF00A0E0E6EBA
:100FB200000E0F6E000E106E000E116E000E126EFD
:100FC200000E136E000E146E000E156E4BEC09F03F
:100FD20006C02BF007C02CF008C02DF009C02EF07F
:100FE2000AC02FF00BC030F00CC031F00DC032F04F
:100FF2002BC018F02CC019F0A2EC0FF01850300FD3
:10100200DF6E3506D8A036063706D8A0380639C0B6
:1010120006F03AC007F03BC008F03CC009F03DC002
:101022000AF03EC00BF03FC00CF040C00DF00A0EBB
:101032000E6E000E0F6E000E106E000E116E000E80
:10104200126E000E136E000E146E000E156E87ECFB
:1010520008F006C039F007C03AF008C03BF009C0FA
:101062003CF00AC03DF00BC03EF00CC03FF00DC09A
:1010720040F043BE45EF08F0435008E14204D8A0D7
:1010820045EF08F047EF08F063EF08F039503A10E7
:101092003B103C103D103E103F104010D8A454EFBE
:1010A20008F056EF08F0BEEF07F036BE63EF08F027
:1010B200365006E13504D8B061EF08F063EF08F06E
:1010C200BEEF07F04150D8B469EF08F06BEF08F0BB
:1010D20076EF08F04206D8A043066A0E4224D96E83
:1010E200010E4320DA6E41C0DFFF21C016F022C09C
:1010F20017F06A0E4224186E010E4320196E37C093
:101102001AF038C01BF063EC0DF01200000E176EDF
:1011120015BE90EF08F08EEF08F0A2EF08F0151E52
:10112200141E131E121E111E101E0F1E0E6C000E18
:101132000F22102211221222132214221522010E32
:10114200176E0DBEA9EF08F0A7EF08F0BBEF08F08D
:101152000D1E0C1E0B1E0A1E091E081E071E066C03
:10116200000E0722082209220A220B220C220D223B
:10117200010E171A20EE18F0070EDE6AE806FDE2ED
:101182000E500F1010101110121013101410151011
:10119200D8B4CEEF08F0D0EF08F022EF09F0010E3C
:1011A200166EDEEF08F0D8900E360F361036113676
:1011B2001236133614361536162A15AEE3EF08F03A
:1011C200E5EF08F0D4EF08F0D890183619361A3641
:1011D2001B361C361D361E361F360E50065C0F504F
:1011E2000758105008581150095812500A581350F5
:1011F2000B5814500C5815500D58D8A003EF09F095
:1012020005EF09F016EF09F00E50065E0F50075A6F
:101212001050085A1150095A12500A5A13500B5AB8
:1012220014500C5A15500D5A1880D8901532143299
:1012320013321232113210320F320E32162EE5EF05
:1012420008F01750D8B428EF09F02AEF09F03AEF66
:1012520009F01F1E1E1E1D1E1C1E1B1E1A1E191EFD
:10126200186C000E19221A221B221C221D221E2279
:101272001F2218C006F019C007F01AC008F01BC0E0
:1012820009F01CC00AF01DC00BF01EC00CF01FC0FC
:101292000DF01200000E176E0DBE54EF09F052EF62
:1012A20009F066EF09F00D1E0C1E0B1E0A1E091E28
:1012B200081E071E066C000E0722082209220A22B7
:1012C2000B220C220D22010E176E15BE6DEF09F0D6
:1012D2006BEF09F07DEF09F0151E141E131E121E8E
:1012E200111E101E0F1E0E6C000E0F221022112254
:1012F20012221322142215220E500F101010111058
:101302001210131014101510D8B48AEF09F08CEFD4
:1013120009F0D4EF09F0010E166E9AEF09F0D89099
:101322000E360F361036113612361336143615367F
:10133200162A15AE9FEF09F0A1EF09F090EF09F020
:101342000E50065C0F50075810500858115009589B
:1013520012500A5813500B5814500C5815500D586F
:10136200D8A0B6EF09F0B8EF09F0C8EF09F00E50B7
:10137200065E0F50075A1050085A1150095A12505F
:101382000A5A13500B5A14500C5A15500D5AD89031
:101392001532143213321232113210320F320E322F
:1013A200162EA1EF09F01750D8B4DAEF09F0DCEFEE
:1013B20009F0ECEF09F00D1E0C1E0B1E0A1E091E91
:1013C200081E071E066C000E0722082209220A22A6
:1013D2000B220C220D2206C006F007C007F008C03F
:1013E20008F009C009F00AC00AF00BC00BF00CC0EB
:1013F2000CF00DC00DF0120046C0D9FF47C0DAFF55
:10140200DECFF6FFDDCFF7FF0800F550250AD8A49E
:101412000DEF0AF00FEF0AF08FEF0AF046C0D9FF86
:1014220047C0DAFFDE2A000EDD22000E516E000EEA
:10143200506E50C054F05268536846C0D9FF47C03E
:10144200DAFFDECF68F0DDCF69F068C0F6FF69C071
:10145200F7FF0800F550640AD8B432EF0AF034EF0F
:101462000AF042EF0AF068C0F6FF69C0F7FF080011
:10147200F550690AD8A440EF0AF042EF0AF086EF6D
:101482000AF048C0D9FF49C0DAFFDFCF4AF0020EA6
:10149200DE26DFCF4BF0000EDD224AC0D9FF4BC063
:1014A200DAFFDECF60F0DDCF61F00001000E61BF38
:1014B200FF0E626F636F646F656F666F676F010E19
:1014C20068254A6E000E69214B6E46C0D9FF47C09F
:1014D200DAFF4AC0DEFF4BC0DDFF44C021F045C049
:1014E20022F060C023F061C024F062C025F063C026
:1014F20026F064C027F065C028F066C029F067C0F6
:101502002AF049EC07F0A3EF0AF046C0D9FF47C022
:10151200DAFFDE2A000EDD22A3EF0AF046C0D9FF71
:1015220047C0DAFFDECFF6FFDDCFF7FF0800F55048
:10153200066E076A44C008F045C009F0BFEC0BF024
:1015420086EF0AF01200030E00019915206E000EBC
:101552009A15216E20502110D8A4B2EF0AF0B4EFF0
:101562000AF0BBEF0AF0000E01018D6F1D0E8C6FA9
:10157200CFEF0AF0030E9915206E000E9A15216E18
:1015820020502110D8B4C8EF0AF0CAEF0AF0CFEF0A
:101592000AF0000E01018D6F1C0E8C6F0001A30575
:1015A200A411D8A4D7EF0AF0D9EF0AF0DFEF0AF0BE
:1015B200A14BA22B000EA46F000EA36F020EA11965
:1015C200A211D8A4E7EF0AF0E9EF0AF0F7EF0AF068
:1015D2000101A44BA52B00019B4B9C2B0101A24BAB
:1015E200A32B000E0001A26F000EA16F080E9B1923
:1015F2009C11D8A4FFEF0AF001EF0BF005EF0BF0FE
:10160200000E9C6F010E9B6FD8909D35D96E9E3552
:10161200DA6E880ED926010EDA22DECF20F0DDCF77
:1016220021F0010E2026000E21220101A2512018D4
:1016320007E1A3512118D8A421EF0BF023EF0BF0FF
:101642002AEF0BF0000EA36F010EA26F00019D4B5B
:101652009E2B0D0E00019D199E11D8A433EF0BF0A5
:1016620035EF0BF03BEF0BF0000E9E6F010E9D6FFE
:10167200994B9A2BD8909D35D96E9E35DA6E880E8D
:10168200D926010EDA22DECF06F0DDCF07F04BECD1
:101692000BF01200000E1D6E010E1C6E000E1F6E6E
:1016A200000E1E6E06501C14086E07501D14096EA3
:1016B20008500910D8B460EF0BF062EF0BF071EF35
:1016C2000BF0D8901E34D96E1F34DA6E0A0ED9266A
:1016D200000EDA22010EDE6E000EDD6E7EEF0BF0E2
:1016E200D8901E34D96E1F34DA6E0A0ED926000E37
:1016F200DA22000EDE6E000EDD6ED8901C361D362C
:101702001E4A1F2A1FBE8FEF0BF01F5009E1090E60
:101712001E5CD8A08FEF0BF091EF0BF053EF0BF0A4
:101722000AB002D07F9001D07F800CB002D07F92AD
:1017320001D07F820EB002D0799401D0798410B0AA
:1017420002D07E9C01D07E8C12B002D0799801D05A
:10175200798814B002D0799A01D0798A16B002D071
:101762007E9001D07E8018B002D07A9001D07A802B
:101772001AB002D07A9201D07A821200085009106F
:10178200D8B4C6EF0BF0C8EF0BF0D1EF0BF0085056
:101792000910D8A4CFEF0BF0D1EF0BF0D6EF0BF07E
:1017A2000650DCEC10F023EF0CF020EE09F00850AC
:1017B200D9260950DA22DE50DE10D8B4E3EF0BF05E
:1017C200E5EF0BF000EF0CF020EE09F00850D926FF
:1017D2000950DA2210EE03F00850E1260950E22205
:1017E200DE50E65CE650800A0E6EDE50800A0E582D
:1017F200D8B0FEEF0BF000EF0CF023EF0CF020EE70
:1018020003F00850D9260950DA22DECF0AF0DDCFE4
:101812000BF008C0D9FF09C0DAFFDECF0CF0DDCF34
:101822000DF00A500C24D96E0B500D20DA6E06C052
:10183200DFFF20EE03F00850D9260950DA22DE2A13
:10184200000EDD221200000E0B6E09BE2DEF0CF011
:101852002BEF0CF033EF0CF0086C091ED8B0092AFC
:10186200010E0B6E07BE3AEF0CF038EF0CF040EFB2
:101872000CF0066C071ED8B0072A010E0B1A000ED8
:101882000D6E000E0C6E08500910D8B44BEF0CF020
:101892004DEF0CF075EF0CF0010E0A6E55EF0CF0E7
:1018A200D890083609360A2A09AE5AEF0CF05CEFD6
:1018B2000CF051EF0CF0D8900C360D360850065C47
:1018C20009500758D8A068EF0CF06AEF0CF06FEFE0
:1018D2000CF00850065E0950075A0C80D890093265
:1018E20008320A2E5CEF0CF00B50D8B47BEF0CF0F0
:1018F2007DEF0CF081EF0CF00C6C0D1ED8B00D2AB0
:101902000CC006F00DC007F012008394839C8296EF
:101912008294859285967A967A947D927D967B942E
:101922007B9C040E0A6E400E096E260EE82EFED730
:10193200092EFCD70A2EFAD700D0030E80EC0EF047
:10194200D50EE82EFED700F0000E076E2C0E32ECFC
:1019520010F0D50EE82EFED700F0000E076E2C0E0A
:1019620032EC10F0D50EE82EFED700F0000E076E16
:101972000C0E32EC10F0D50EE82EFED700F0000E61
:10198200076E010E32EC10F0200E096ECA0EE82E20
:10199200FED7092EFCD7000E076E070E32EC10F0B0
:1019A200000E076E0C0E32EC10F01200D7EC10F0A5
:1019B2005DEC10F094EC10F070EC10F082EC10F092
:1019C200C7EC10F0A4EC10F081EC0FF086EC0CF0F8
:1019D200010E18EC10F0000E00018D6F010E8E6FDB
:1019E200A1C08FF0A2C090F0A3C091F0A4C092F069
:1019F200A2C193F0A3C194F09DC095F09EC096F051
:101A020099C097F09AC098F023EC0DF0A4EC0AF07C
:101A1200C2EC0FF049EC0EF012EC0EF049EC0EF0B5
:101A22000CC013F00DC014F012EC0EF00CC015F047
:101A32000DC016F0DAEC0DF0B4EC0EF0E9EF0CF09C
:101A420054EF00F08DC070F08EC071F07D0E000179
:101A5200726F0E0E736F8FC074F090C075F091C0EC
:101A620006F092C007F0000E096E3C0E086EA0EC64
:101A72000DF006C076F007C077F091C078F092C002
:101A820079F093C07AF094C07BF095C07CF096C058
:101A92007DF097C07EF098C07FF00EEC0FF08DC005
:101AA20009F08EC00AF0FEEC0FF0520E4F6E2B0EB4
:101AB2004E6E000EE82EFED74E2EFCD74F2EFAD7D2
:101AC20000D012001BBE68EF0DF06AEF0DF070EF50
:101AD2000DF01AC01FF01BC020F074EF0DF0000EC5
:101AE200206E000E1F6E000E1E6E000E1D6E86EF23
:101AF2000DF0000E076E200E066E16C008F017C01D
:101B020009F0BFEC0BF01D4A1E2A1F501D5C1E502F
:101B1200800A1C6E2050800A1C58D8A093EF0DF04A
:101B220095EF0DF07AEF0DF018C00FF019C010F01C
:101B320016C011F017C012F05FEC0FF01200000E89
:101B42000C6E000E0B6E08500910D8B4ABEF0DF0FE
:101B5200ADEF0DF0D5EF0DF0010E0A6EB5EF0DF001
:101B6200D890083609360A2A09AEBAEF0DF0BCEF52
:101B72000DF0B1EF0DF0D8900B360C360850065C24
:101B820009500758D8A0C8EF0DF0CAEF0DF0CFEFFB
:101B92000DF00850065E0950075A0B80D8900932A2
:101BA20008320A2EBCEF0DF00BC006F00CC007F095
:101BB2001200000E1A6E000E196E15501324066ED6
:101BC20016501420076E000E096E020E086E24ECE9
:101BD2000CF006C017F007C018F01750C008196EB5
:101BE2001850D8A0E82AA8081A6E0B0E0001A119F5
:101BF200A211D8A4FFEF0DF001EF0EF011EF0EF0DD
:101C0200080EA31907E1070EA419D8A40BEF0EF0D2
:101C12000DEF0EF011EF0EF01950A3271A50A42366
:101C2200120080B617EF0EF01BEF0EF00E6A0E2AAE
:101C32001CEF0EF00E6A0E500F6E106A000E126E3E
:101C4200000E116E0F501010D8A42AEF0EF02CEFD8
:101C52000EF044EF0EF080A631EF0EF033EF0EF0EF
:101C620044EF0EF0A1C006F0A2C007F00E0E096EFE
:101C7200100E086E4AEC10F00001A3510624116EFA
:101C8200A4510720126E11C00CF012C00DF0120008
:101C920080B64EEF0EF052EF0EF00E6A0E2A53EFA0
:101CA2000EF00E6A0E500F6E106A000E126E000ECB
:101CB200116E0F041010D8A461EF0EF063EF0EF056
:101CC2007BEF0EF080B668EF0EF06AEF0EF07BEF5E
:101CD2000EF0A1C006F0A2C007F00E0E096E100EA3
:101CE200086E4AEC10F00001A3510624116EA451B3
:101CF2000720126E11C00CF012C00DF01200066E19
:101D020006A086EF0EF088EF0EF08BEF0EF07A86CB
:101D12008CEF0EF07A9606A291EF0EF093EF0EF092
:101D220096EF0EF07A8497EF0EF07A9406A49CEF69
:101D32000EF09EEF0EF0A1EF0EF07D86A2EF0EF0F8
:101D42007D9606A6A7EF0EF0A9EF0EF0ACEF0EF00F
:101D52007D82ADEF0EF07D92D0EC10F01A0EE82EDF
:101D6200FED700D01200030E00019D199E11D8A4C7
:101D7200BDEF0EF0BFEF0EF0CBEF0EF0070E9B198A
:101D82009C11D8A4C7EF0EF0C9EF0EF0CBEF0EF006
:101D9200A14BA22B0A0E9D199E11D8A4D3EF0EF0CF
:101DA200D5EF0EF0E2EF0EF0070E9B199C11D8A4AE
:101DB200DDEF0EF0DFEF0EF0E2EF0EF0A107D8A09C
:101DC200A2071200620EF66E210EF76E000EF86E7A
:101DD20001EE8AF010EE18F00900F5CFEEFFE550A3
:101DE200E150FAE101EE64F0260EEE6AE806FDE14A
:101DF2000001A46BA36BA26BA16BA06B9F6B546AD7
:101E0200536A526A516A506A55905592000EF86EA2
:101E12000E0EF76E0001D7EF0CF0740E0001806F0A
:101E2200000E816F70C082F071C083F0000E866F69
:101E3200000E856F000E8C6F000E8B6F820E6A6F24
:101E4200000E6B6F72C06CF073C06DF0800E6E6F1F
:101E5200000E6F6F37EC0FF0000185517025D96EBF
:101E620086517121DA6E000EDF6E12006CC04CF0EA
:101E72006DC04DF04BEF0FF06AC044F06BC045F0FF
:101E82004C0E466E000E476E6EC048F06FC049F0B1
:101E9200FDEC09F04CC0F6FF4DC0F7FF0800F5500D
:101EA2000009D8A457EF0FF059EF0FF03DEF0FF0F4
:101EB200000E00016B6F000E6A6F1200000E156EAD
:101EC200000E146E70EF0FF013C006F0076A11C017
:101ED20008F012C009F0BFEC0BF0144A152A145096
:101EE2000F24D96E15501020DA6EDF50136E135086
:101EF200D8A47EEF0FF080EF0FF065EF0FF0120025
:101F0200000E0001A46F000EA36F000EA26F000E60
:101F1200A16F000E0101A56F010EA46F000EA36F49
:101F2200010EA26F000E00019C6F060E9B6F070E42
:101F32009A6FE80E996F000E9E6F010E9D6F80865C
:101F4200120019BEAFEF0FF0195006E11804D8B015
:101F5200ADEF0FF0AFEF0FF0BDEF0FF018C01AF0BA
:101F620019C01BF01A1E1B1E1A4A1B2A1AC018F08F
:101F72001BC019F0C1EF0FF018C018F019C019F00A
:101F820012000001A2BFCEEF0FF0A25108E1A1059D
:101F9200D8A0CEEF0FF0D0EF0FF0DFEF0FF0A2BF1F
:101FA200DEEF0FF0A25107E1050EA15DD8B0DCEF24
:101FB2000FF0DEEF0FF0DFEF0FF0809612000E0150
:101FC20035A1E6EF0FF0E8EF0FF0FCEF0FF080A67F
:101FD200EDEF0FF0F1EF0FF0016A012AF2EF0FF0CF
:101FE200016A01460146014680500118F70B0118AB
:101FF200806E0E013591559211000BEF10F0010E1B
:10200200076E09C0D9FF0AC0DAFFDF5032EC10F0C8
:10201200094A0A2A09C0D9FF0AC0DAFFDF50D8A448
:1020220015EF10F017EF10F000EF10F01200096E2C
:1020320009A01EEF10F020EF10F025EF10F0000EB7
:10204200076E800E32EC10F009A22AEF10F02CEF8E
:1020520010F031EF10F0000E076EC00E32EC10F0EF
:102062001200086E07A038EF10F03AEF10F03DEFC3
:1020720010F07B8C3EEF10F07B9C08380F0B80EC4D
:102082000EF0085080EC0EF0A00E00D0E82EFDD726
:10209200120006500802F3CF0AF0F4CF0BF00650FC
:1020A2000902F3500B2607500802F3500B260AC010
:1020B20006F00BC007F01200879087928194869CED
:1020C2008198819A8690829082927F907F92799471
:1020D2007E9C7998799A7E907A907A921200868E76
:1020E2000E01D251F80B0309D26FD351F80B050937
:1020F200D36FD083D089D183BDEC10F00E01D08F85
:102102001200868E0E01D251F80B0309D26FD35101
:10211200F80B0509D36FD083D089D181BDEC10F0C3
:102122000E01D08F1200D6501F0B4009D66ED688F2
:10213200D650F00B0809D66ED5880B0ED46EDB0E86
:10214200D36ED58E120081860E0192870F015899A7
:10215200FC0E5817030E5F6F60946088608E120049
:102162001F001C001F001E001F001E001F001F007A
:102172001E001F001E001F00F30E0E01C617C6919F
:10218200C751E00B1409C76FC68F12000E012B81D5
:10219200298B21811F9BF28AF28CF28E12007B84A2
:1021A2000A0EE82EFED700D07B9412008096889605
:0821B2007C8E849E12001200D5
:020000040020DA
:10000000FF0FFF0FFF0FFF0FFF0FFF0FFF0FFF0F80
:020000040030CA
:0C000000AAFFFFFF9FFFFFFFFFFFFFFFB5
:00000001FF
