:0400000050EF00F0CD
:06000800308272EF08F0E7
:100018003080D8CF03F0E8CF04F0E0CF05F00E0130
:1000280033AB19EF00F01BEF00F022EF00F02E4A7F
:100038002F2A090ED46EC30ED36E339B050E2E18CD
:100048002F10D8A42AEF00F02CEF00F03DEF00F0BD
:100058007CAE31EF00F035EF00F0026A022A36EF8D
:1000680000F0026A023202327C5002187F0B02183A
:100078007C6E050E2C182D10D8A445EF00F047EF24
:1000880000F048EF00F0808605C0E0FF04C0E8FFFC
:0C00980003C0D8FF30901000F1EF08F01A
:100E00000000000000DCCFD1350000000000C0155C
:100E10003F6042A20D70A5EC363BAAB83F4F387632
:100E20003F3CAA38338CBEBF350072313F18723157
:100E30003F4CBB31330EEADDB555B38A38610B3612
:100E4000BBABAA2A3E42F1533E55326C3E05A38B02
:100E50003EABAAAA3EB76DDB3E9A99193F6042A20B
:100E60000DCAF249710000804B0000803F0000C0B5
:0F0E70003F00AAB83FC623F6B80040763F000007
:100E8000000E1D6E010E1C6E000E1F6E000E1E6EFB
:100E900006501C14086E07501D14096E08500910E6
:100EA000D8B455EF07F057EF07F066EF07F0D8908A
:100EB0001E34D96E1F34DA6E0A0ED926000EDA22DD
:100EC000010EDE6E000EDD6E73EF07F0D8901E345B
:100ED000D96E1F34DA6E0A0ED926000EDA22000E01
:100EE000DE6E000EDD6ED8901C361D361E4A1F2A9F
:100EF0001FBE84EF07F01F5009E1090E1E5CD8A049
:100F000084EF07F086EF07F048EF07F00AB002D051
:100F10007F9001D07F800CB002D07F9201D07F8281
:100F20000EB002D0799401D0798410B002D07E9CAA
:100F300001D07E8C12B002D0799801D0798814B09B
:100F400002D0799A01D0798A16B002D07E9001D071
:100F50007E8018B002D07A9001D07A801AB002D088
:100F60007A9201D07A821200000E0B6E07BEBDEF9E
:100F700007F0BBEF07F0C3EF07F0066C071ED8B011
:100F8000072A010E0B6E09BECAEF07F0C8EF07F083
:100F9000CEEF07F0086C091ED8B0092A08500910D6
:100FA000D8B4D5EF07F0D7EF07F0FBEF07F0010E4D
:100FB0000A6EDFEF07F0D890083609360A2A09AE24
:100FC000E4EF07F0E6EF07F0DBEF07F00850065C10
:100FD00009500758D8A0EFEF07F0F1EF07F0F5EF51
:100FE00007F00850065E0950075AD89009320832B7
:100FF0000A2EE6EF07F00B50D8B401EF08F003EF2C
:1010000008F007EF08F0066C071ED8B0072A06C0E4
:1010100006F007C007F012002E042F10D8A413EF1B
:1010200008F015EF08F021EF08F02C4A2D2A2CC00B
:1010300006F02DC007F040EC07F0000E2F6E000EFA
:101040002E6E180E2C182D10D8A429EF08F02BEFB7
:1010500008F031EF08F02A4A2B2A000E2D6E000E00
:101060002C6E2AC006F02BC007F0000E096E070E8A
:10107000086EB4EC07F006500710D8A442EF08F051
:1010800044EF08F046EF08F0284A292A6D0E2A1886
:1010900006E12B04D8A44FEF08F051EF08F053EF0E
:1010A00008F0264A272A12002DBE60EF08F02D50C6
:1010B00009E1020E2C5CD8A060EF08F062EF08F0A6
:1010C00071EF08F02DBE70EF08F02D5007E1050E0E
:1010D0002C5CD8B06EEF08F070EF08F071EF08F0FC
:1010E000809612000E0135A178EF08F07AEF08F033
:1010F0008EEF08F080A67FEF08F083EF08F0016A1A
:10110000012A84EF08F0016A014601460146805039
:101110000118F70B0118806E0E0135913092110005
:1011200020EC09F0000E2D6E000E2C6EAAEC08F0DB
:10113000E1EC08F0BDEC08F0CFEC08F017EC09F09A
:1011400000EC09F00CEC08F054EC08F0A2EF08F009
:1011500050EF00F0879087928194869C8198819AC5
:101160008690829082927F907F9279947E9C7998EB
:10117000799A7E907A907A921200868E0E01D251E0
:10118000F80B0309D26FD351F80B0509D36FD08345
:10119000D089D1830DEC09F00E01D08F1200868E1C
:1011A0000E01D251F80B0309D26FD351F80B050988
:1011B000D36FD083D089D1810DEC09F00E01D08F8F
:1011C0001200D6501F0B4009D66ED688D650F00BB1
:1011D0000809D66ED5880B0ED46EDB0ED36ED58E75
:1011E000120000EE20F0100EEE6AE806FDE13090ED
:1011F0003092000EF86E0E0EF76E000190EF08F0C0
:1012000081860E0192870F015899FC0E5817030E24
:101210005F6F60946088608E1200F30E0E01C61737
:10122000C691C751E00B1409C76FC68F12000E019B
:101230002B81298B21811F9BF28AF28CF28E120066
:0A124000809688967C8E849E120032
:020000040020DA
:10000000FF0FFF0FFF0FFF0FFF0FFF0FFF0FFF0F80
:020000040030CA
:0C000000AAFFFFFF9FFFFFFFFFFFFFFFB5
:00000001FF
