:0400000038EF00F0E5
:060008005A8252EF0FF0D6
:100018005A80D8CF02F0E8CF03F0E0CF04F00E0109
:1000280033AB19EF00F01BEF00F024EF00F00001F4
:100038009B4B9C2B090ED46EC30ED36E0E01339BC3
:10004800050E000199199A11D8A42DEF00F02FEF91
:1000580000F030EF00F0808604C0E0FF03C0E8FF46
:0C00680002C0D8FF5A90100083EF0EF089
:090E000000256420256420000097
:100E0A0022C038F023C039F024C03AF025C03BF0A4
:100E1A0026C03CF027C03DF028C03EF029C03FF074
:100E2A003FBE1AEF07F01DEF07F0010E1EEF07F0A5
:100E3A00000E406E4050D8B425EF07F027EF07F0B8
:100E4A0037EF07F03F1E3E1E3D1E3C1E3B1E3A1E5C
:100E5A00391E386C000E39223A223B223C223D22AE
:100E6A003E223F2258BE44EF07F0585006E157048D
:100E7A00D8B042EF07F044EF07F04AEF07F0000E50
:100E8A00356E010E346E4EEF07F057C034F058C07D
:100E9A0035F093C036F094C037F04050D8B458EFCC
:100EAA0007F05AEF07F071EF07F03606D8A03706B9
:100EBA004050D8A463EF07F065EF07F06BEF07F037
:100ECA00000E336E2B0E326E6FEF07F0000E336E8C
:100EDA002D0E326E32C040F0000E426E1F0E416E71
:100EEA00000E0101836FF6EF07F04106D8A0420613
:100EFA00640E4124D96E010E4220DA6E38C005F024
:100F0A0039C006F03AC007F03BC008F03CC009F00F
:100F1A003DC00AF03EC00BF03FC00CF00A0E0D6E49
:100F2A00000E0E6E000E0F6E000E106E000E116E89
:100F3A00000E126E000E136E000E146E07EC09F00E
:100F4A0005C02AF006C02BF007C02CF008C02DF00F
:100F5A0009C02EF00AC02FF00BC030F00CC031F0DF
:100F6A002AC017F02BC018F0F5EC0EF01750300F0E
:100F7A00DF6E3406D8A035063606D8A0370638C044
:100F8A0005F039C006F03AC007F03BC008F03CC093
:100F9A0009F03DC00AF03EC00BF03FC00CF00A0E4B
:100FAA000D6E000E0E6E000E0F6E000E106E000E0D
:100FBA00116E000E126E000E136E000E146E43ECCC
:100FCA0008F005C038F006C039F007C03AF008C08A
:100FDA003BF009C03CF00AC03DF00BC03EF00CC02B
:100FEA003FF042BE01EF08F0425008E14104D8A0A8
:100FFA0001EF08F003EF08F01FEF08F0385039103E
:10100A003A103B103C103D103E103F10D8A410EF90
:10101A0008F012EF08F07AEF07F035BE1FEF08F07C
:10102A00355006E13404D8B01DEF08F01FEF08F080
:10103A007AEF07F04050D8B425EF08F027EF08F010
:10104A0032EF08F04106D8A04206640E4124D96E58
:10105A00010E4220DA6E40C0DFFF20C015F021C029
:10106A0016F0640E4124176E010E4220186E36C027
:10107A0019F037C01AF018EC0DF01200000E166EB7
:10108A0014BE4CEF08F04AEF08F05EEF08F0141EA9
:10109A00131E121E111E101E0F1E0E1E0D6C000EA8
:1010AA000E220F2210221122122213221422010EC2
:1010BA00166E0CBE65EF08F063EF08F077EF08F0E4
:1010CA000C1E0B1E0A1E091E081E071E061E056C94
:1010DA00000E06220722082209220A220B220C22CB
:1010EA00010E161A20EE17F0070EDE6AE806FDE278
:1010FA000D500E100F1010101110121013101410A2
:10110A00D8B48AEF08F08CEF08F0DEEF08F0010E91
:10111A00156E9AEF08F0D8900D360E360F36103647
:10112A001136123613361436152A14AE9FEF08F00C
:10113A00A1EF08F090EF08F0D89017361836193654
:10114A001A361B361C361D361E360D50055C0E50DF
:10115A0006580F5007581050085811500958125085
:10116A000A5813500B5814500C58D8A0BFEF08F067
:10117A00C1EF08F0D2EF08F00D50055E0E50065A86
:10118A000F50075A1050085A1150095A12500A5A49
:10119A0013500B5A14500C5A1780D8901432133229
:1011AA001232113210320F320E320D32152EA1EFD9
:1011BA0008F01650D8B4E4EF08F0E6EF08F0F6EFBE
:1011CA0008F01E1E1D1E1C1E1B1E1A1E191E181E8E
:1011DA00176C000E182219221A221B221C221D2209
:1011EA001E2217C005F018C006F019C007F01AC071
:1011FA0008F01BC009F01CC00AF01DC00BF01EC08D
:10120A000CF01200000E166E0CBE10EF09F00EEF75
:10121A0009F022EF09F00C1E0B1E0A1E091E081EF9
:10122A00071E061E056C000E062207220822092246
:10123A000A220B220C22010E166E14BE29EF09F0A7
:10124A0027EF09F039EF09F0141E131E121E111EA2
:10125A00101E0F1E0E1E0D6C000E0E220F221022E3
:10126A0011221222132214220D500E100F101010E8
:10127A001110121013101410D8B446EF09F048EFE9
:10128A0009F090EF09F0010E156E56EF09F0D890AB
:10129A000D360E360F361036113612361336143610
:1012AA00152A14AE5BEF09F05DEF09F04CEF09F077
:1012BA000D50055C0E5006580F500758105008582C
:1012CA001150095812500A5813500B5814500C5800
:1012DA00D8A072EF09F074EF09F084EF09F00D500D
:1012EA00055E0E50065A0F50075A1050085A1150F0
:1012FA00095A12500A5A13500B5A14500C5AD890C1
:10130A00143213321232113210320F320E320D32BF
:10131A00152E5DEF09F01650D8B496EF09F098EF44
:10132A0009F0A8EF09F00C1E0B1E0A1E091E081E62
:10133A00071E061E056C000E062207220822092235
:10134A000A220B220C2205C005F006C006F007C0CF
:10135A0007F008C008F009C009F00AC00AF00BC07B
:10136A000BF00CC00CF0120045C0D9FF46C0DAFFE2
:10137A00DECFF6FFDDCFF7FF0800F550250AD8A427
:10138A00C9EF09F0CBEF09F04BEF0AF045C0D9FFDE
:10139A0046C0DAFFDE2A000EDD22000E0001946F3D
:1013AA00000E936F93C059F05768586845C0D9FF2B
:1013BA0046C0DAFFDECF53F0DDCF54F053C0F6FF5C
:1013CA0054C0F7FF0800F550640AD8B4EFEF09F0EB
:1013DA00F1EF09F0FFEF09F053C0F6FF54C0F7FF31
:1013EA000800F550690AD8A4FDEF09F0FFEF09F0EB
:1013FA0042EF0AF047C0D9FF48C0DAFFDFCF49F011
:10140A00020EDE26DFCF4AF0000EDD2249C0D9FFE8
:10141A004AC0DAFFDECF4BF0DDCF4CF0000E4CBEF7
:10142A00FF0E4D6E4E6E4F6E506E516E526E010E25
:10143A005324496E000E54204A6E45C0D9FF46C057
:10144A00DAFF49C0DEFF4AC0DDFF43C020F044C0D6
:10145A0021F04BC022F04CC023F04DC024F04EC006
:10146A0025F04FC026F050C027F051C028F052C0D6
:10147A0029F005EC07F05FEF0AF045C0D9FF46C036
:10148A00DAFFDE2A000EDD225FEF0AF045C0D9FF3F
:10149A0046C0DAFFDECFF6FFDDCFF7FF0800F550D2
:1014AA00056E066A43C007F044C008F070EC0BF002
:1014BA0042EF0AF01200030E000189151F6E000E9A
:1014CA008A15206E1F502010D8A46EEF0AF070EF14
:1014DA000AF075EF0AF0000E0101876F1D0E866F84
:1014EA00030E000189151F6E000E8A15206E1F500B
:1014FA002010D8B483EF0AF085EF0AF08AEF0AF0D9
:10150A00000E0101876F1C0E866F000197519B190F
:10151A0007E198519C19D8A495EF0AF097EF0AF0C1
:10152A00A4EF0AF0994B9A2B99C005F09AC006F0DD
:10153A00FCEC0AF0000E00019C6F000E9B6F9551A7
:10154A00991907E196519A19D8A4AEEF0AF0B0EFAB
:10155A000AF0BAEF0AF08F4B902B8D4B8E2B8B4BE8
:10156A008C2B000E9A6F000E996F080E8D198E1132
:10157A00D8A4C2EF0AF0C4EF0AF0C8EF0AF0000ECE
:10158A008E6F010E8D6FD8909135D96E9235DA6EC5
:10159A00820ED926010EDA22DECF1FF0DDCF20F02F
:1015AA00010E1F26000E20228B511F1807E18C51B5
:1015BA002018D8A4E3EF0AF0E5EF0AF0EBEF0AF0FF
:1015CA00000E8C6F010E8B6F914B922B0D0E9119A1
:1015DA009211D8A4F3EF0AF0F5EF0AF0FBEF0AF044
:1015EA00000E926F010E916F894B8A2B1200000E2A
:1015FA001C6E010E1B6E000E1E6E000E1D6E055037
:10160A001B14076E06501C14086E07500810D8B435
:10161A0011EF0BF013EF0BF022EF0BF0D8901D3403
:10162A00D96E1E34DA6E090ED926000EDA22010EA0
:10163A00DE6E000EDD6E2FEF0BF0D8901D34D96EE2
:10164A001E34DA6E090ED926000EDA22000EDE6E7C
:10165A00000EDD6ED8901B361C361D4A1E2A1EBE91
:10166A0040EF0BF01E5009E1090E1D5CD8A040EFB7
:10167A000BF042EF0BF004EF0BF009B002D07F90B1
:10168A0001D07F800BB002D07F9201D07F820DB053
:10169A0002D0799401D079840FB002D07E9C01D017
:1016AA007E8C11B002D0799801D0798813B002D01B
:1016BA00799A01D0798A15B002D07E9001D07E80C5
:1016CA0017B002D07A9001D07A8019B002D07A92FB
:1016DA0001D07A82120007500810D8B477EF0BF0C5
:1016EA0079EF0BF082EF0BF007500810D8A480EFC7
:1016FA000BF082EF0BF087EF0BF0055056EC10F071
:10170A00D4EF0BF020EE09F00750D9260850DA2260
:10171A00DE50DE10D8B494EF0BF096EF0BF0B1EF79
:10172A000BF020EE09F00750D9260850DA2210EE05
:10173A0003F00750E1260850E222DE50E65CE6504C
:10174A00800A0D6EDE50800A0D58D8B0AFEF0BF04C
:10175A00B1EF0BF0D4EF0BF020EE03F00750D926CF
:10176A000850DA22DECF09F0DDCF0AF007C0D9FF30
:10177A0008C0DAFFDECF0BF0DDCF0CF009500B24E6
:10178A00D96E0A500C20DA6E05C0DFFF20EE03F096
:10179A000750D9260850DA22DE2A000EDD2212006E
:1017AA00000E0A6E08BEDEEF0BF0DCEF0BF0E4EF82
:1017BA000BF0076C081ED8B0082A010E0A6E06BE86
:1017CA00EBEF0BF0E9EF0BF0F1EF0BF0056C061EF7
:1017DA00D8B0062A010E0A1A000E0C6E000E0B6E05
:1017EA0007500810D8B4FCEF0BF0FEEF0BF026EF11
:1017FA000CF0010E096E06EF0CF0D8900736083689
:10180A00092A08AE0BEF0CF00DEF0CF002EF0CF00A
:10181A00D8900B360C360750055C08500658D8A0ED
:10182A0019EF0CF01BEF0CF020EF0CF00750055EDF
:10183A000850065A0B80D89008320732092E0DEF4D
:10184A000CF00A50D8B42CEF0CF02EEF0CF032EF5B
:10185A000CF00B6C0C1ED8B00C2A0BC005F00CC097
:10186A0006F012008394839C8296829485928596D0
:10187A007A967A947D927D967B947B9C040E096E6F
:10188A00400E086E260EE82EFED7082EFCD7092E2B
:10189A00FAD700D0030EFBEC0DF0D50EE82EFED7DA
:1018AA0000F0000E066E2C0EA4EC0FF0D50EE82EFA
:1018BA00FED700F0000E066E2C0EA4EC0FF0D50E2B
:1018CA00E82EFED700F0000E066E0C0EA4EC0FF008
:1018DA00D50EE82EFED700F0000E066E010EA4EC1F
:1018EA000FF0200E086ECA0EE82EFED7082EFCD77F
:1018FA00000E066E070EA4EC0FF0000E066E0C0E1C
:10190A00A4EC0FF0120053EC10F0CFEC0FF006EC41
:10191A0010F0E2EC0FF0F4EC0FF043EC10F016ECE0
:10192A0010F015EC0FF037EC0CF02FEC10F0010E64
:10193A008AEC0FF0000E00017B6F010E7C6F99C0DC
:10194A007DF09AC07EF09BC07FF09CC080F08BC077
:10195A0081F08CC082F091C083F092C084F089C07B
:10196A0085F08AC086F02FEC0EF060EC0AF034ECB9
:10197A000FF0C4EC0DF08DEC0DF0C4EC0DF00BC0C3
:10198A0012F00CC013F08DEC0DF00BC014F00CC06B
:10199A0015F055EC0DF0D6EC0CF09CEF0CF038EF8E
:1019AA0000F0030E000191199211D8A4DFEF0CF098
:1019BA00E1EF0CF0F6EF0CF0070E8D198E11D8A49A
:1019CA00E9EF0CF0EBEF0CF0F6EF0CF099059A1139
:1019DA00D8A4F2EF0CF0F4EF0CF0F6EF0CF0994B00
:1019EA009A2B0A0E91199211D8A4FEEF0CF000EF6F
:1019FA000DF017EF0DF0070E8D198E11D8A408EF10
:101A0A000DF00AEF0DF017EF0DF0020E99199A1169
:101A1A00D8A412EF0DF014EF0DF017EF0DF099079F
:101A2A00D8A09A0712001ABE1DEF0DF01FEF0DF095
:101A3A0025EF0DF019C01EF01AC01FF029EF0DF0A6
:101A4A00000E1F6E000E1E6E000E1D6E000E1C6E26
:101A5A003BEF0DF0000E066E200E056E15C007F066
:101A6A0016C008F070EC0BF01C4A1D2A1E501C5CB4
:101A7A001D50800A1B6E1F50800A1B58D8A048EFC1
:101A8A000DF04AEF0DF02FEF0DF017C00EF018C051
:101A9A000FF015C010F016C011F0D3EC0EF01200C2
:101AAA00000E196E000E186E14501224056E155091
:101ABA001320066E000E086E020E076ED5EC0BF0B0
:101ACA0005C016F006C017F01650C008186E175059
:101ADA00D8A0E82AA808196E0B0E000199199A11C4
:101AEA00D8A47AEF0DF07CEF0DF08CEF0DF0080E14
:101AFA009B1907E1070E9C19D8A486EF0DF088EF11
:101B0A000DF08CEF0DF018509B2719509C231200F2
:101B1A0080B692EF0DF096EF0DF00D6A0D2A97EF51
:101B2A000DF00D6A0D500E6E0F6A000E116E000E4A
:101B3A00106E0E500F10D8A4A5EF0DF0A7EF0DF000
:101B4A00BFEF0DF080A6ACEF0DF0AEEF0DF0BFEFDA
:101B5A000DF099C005F09AC006F00E0E086E100E30
:101B6A00076EBCEC0FF000019B510524106E9C51CE
:101B7A000620116E10C00BF011C00CF0120080B6D6
:101B8A00C9EF0DF0CDEF0DF00D6A0D2ACEEF0DF075
:101B9A000D6A0D500E6E0F6A000E116E000E106E59
:101BAA000E040F10D8A4DCEF0DF0DEEF0DF0F6EF07
:101BBA000DF080B6E3EF0DF0E5EF0DF0F6EF0DF066
:101BCA0099C005F09AC006F00E0E086E100E076E48
:101BDA00BCEC0FF000019B510524106E9C510620AD
:101BEA00116E10C00BF011C00CF01200056E05A0AA
:101BFA0001EF0EF003EF0EF006EF0EF07A8607EF14
:101C0A000EF07A9605A20CEF0EF00EEF0EF011EF21
:101C1A000EF07A8412EF0EF07A9405A417EF0EF004
:101C2A0019EF0EF01CEF0EF07D861DEF0EF07D967B
:101C3A0005A622EF0EF024EF0EF027EF0EF07D82BC
:101C4A0028EF0EF07D924CEC10F01A0EE82EFED71B
:101C5A0000D012007BC066F07CC067F0010E000164
:101C6A00686F0E0E696FC4EC0DF00BC06AF00CC001
:101C7A006BF08DEC0DF00BC06CF00CC06DF05AECF3
:101C8A000EF07BC008F07CC009F070EC0FF0520E29
:101C9A000001886F2B0E876F000EE82EFED7872F64
:101CAA00FCD7882FFAD700F012006A0E00016E6F77
:101CBA00000E6F6F66C070F067C071F0000E746F2F
:101CCA00000E736F000E7A6F000E796F700E606FE0
:101CDA00000E616F68C062F069C063F06E0E646FD7
:101CEA00000E656FABEC0EF0000173516625D96EDC
:101CFA0074516721DA6E000EDF6E1200460EF66E20
:101D0A00200EF76E000EF86E01EE84F010EE18F059
:101D1A000900F5CFEEFFE550E150FAE101EE64F07B
:101D2A00200EEE6AE806FDE100EE93F00A0EEE6A76
:101D3A00E806FDE1596A586A576A5A905A92000EA3
:101D4A00F86E0E0EF76E000188EF0CF062C055F0C7
:101D5A0063C056F0BFEF0EF060C043F061C044F0BC
:101D6A00550E456E000E466E64C047F065C048F0D9
:101D7A00B9EC09F055C0F6FF56C0F7FF0800F55058
:101D8A000009D8A4CBEF0EF0CDEF0EF0B1EF0EF0B4
:101D9A00000E0001616F000E606F1200000E146EDB
:101DAA00000E136EE4EF0EF012C005F0066A10C0C2
:101DBA0007F011C008F070EC0BF0134A142A135004
:101DCA000E24D96E14500F20DA6EDF50126E1250A4
:101DDA00D8A4F2EF0EF0F4EF0EF0D9EF0EF01200E5
:101DEA0018BE02EF0FF0185006E11704D8B000EF42
:101DFA000FF002EF0FF010EF0FF017C019F018C034
:101E0A001AF0191E1A1E194A1A2A19C017F01AC0EE
:101E1A0018F014EF0FF017C017F018C018F01200DE
:101E2A00000E00019C6F000E9B6F000E9A6F000E51
:101E3A00996F000E906F010E8F6F000E8C6F010E5E
:101E4A008B6F000E8E6F010E8D6F070E8A6FE60E76
:101E5A00896F000E926F010E916F80861200000149
:101E6A009ABF40EF0FF09A5108E19905D8A040EFC8
:101E7A000FF042EF0FF051EF0FF09ABF50EF0FF053
:101E8A009A5107E1050E995DD8B04EEF0FF050EF69
:101E9A000FF051EF0FF0809612000E0135A158EFA6
:101EAA000FF05AEF0FF06EEF0FF080A65FEF0FF012
:101EBA0063EF0FF0016A012A64EF0FF0016A01462D
:101ECA000146014680500118F70B0118806E0E0179
:101EDA0035915A9211007DEF0FF0010E066E08C07F
:101EEA00D9FF09C0DAFFDF50A4EC0FF0084A092A2B
:101EFA0008C0D9FF09C0DAFFDF50D8A487EF0FF076
:101F0A0089EF0FF072EF0FF01200086E08A090EF41
:101F1A000FF092EF0FF097EF0FF0000E066E800EA3
:101F2A00A4EC0FF008A29CEF0FF09EEF0FF0A3EFC6
:101F3A000FF0000E066EC00EA4EC0FF01200076E32
:101F4A0006A0AAEF0FF0ACEF0FF0AFEF0FF07B8C0B
:101F5A00B0EF0FF07B9C07380F0BFBEC0DF007502E
:101F6A00FBEC0DF0A00E00D0E82EFDD712000550B4
:101F7A000702F3CF09F0F4CF0AF005500802F35034
:101F8A000A2606500702F3500A2609C005F00AC0BD
:101F9A0006F01200879087928194869C8198819A94
:101FAA008690829082927F907F9279947E9C799893
:101FBA00799A7E907A907A921200868E0E01D25188
:101FCA00F80B0309D26FD351F80B0509D36FD083ED
:101FDA00D089D18339EC10F00E01D08F1200868E91
:101FEA000E01D251F80B0309D26FD351F80B050930
:101FFA00D36FD083D089D18139EC10F00E01D08F04
:10200A001200D6501F0B4009D66ED688D650F00B58
:10201A000809D66ED5880B0ED46EDB0ED36ED58E1C
:10202A00120081860E0192870F015899FC0E5817EB
:10203A00030E5F6F60946088608E12001F001C00A0
:10204A001F001E001F001E001F001F001E001F0091
:10205A001E001F00000E0001986F010E976F000E00
:10206A00966F180E956F1200F30E0E01C617C691E1
:10207A00C751E00B1409C76FC68F12000E012B81DE
:10208A00298B21811F9BF28AF28CF28E12007B84AB
:10209A000A0EE82EFED700D07B941200809688960E
:0420AA00120012000E
:020000040020DA
:10000000FF0FFF0FFF0FFF0FFF0FFF0FFF0FFF0F80
:020000040030CA
:0C000000AAFFFFFF9FFFFFFFFFFFFFFFB5
:00000001FF
