:0400000045EF00F0D8
:060008003282C2EF08F095
:100018003280D8CF03F0E8CF04F0E0CF05F00E012E
:1000280033AB19EF00F01BEF00F022EF00F02E4A7F
:100038002F2A090ED46EC30ED36E339B020E2E18D0
:100048002F10D8A42AEF00F02CEF00F03DEF00F0BD
:100058007CAE31EF00F035EF00F0026A022A36EF8D
:1000680000F0026A023202327C5002187F0B02183A
:100078007C6E05C0E0FF04C0E8FF03C0D8FF3290E3
:0600880010003FEF09F03B
:100E00000000000000DCCFD1350000000000C0155C
:100E10003F6042A20D70A5EC363BAAB83F4F387632
:100E20003F3CAA38338CBEBF350072313F18723157
:100E30003F4CBB31330EEADDB555B38A38610B3612
:100E4000BBABAA2A3E42F1533E55326C3E05A38B02
:100E50003EABAAAA3EB76DDB3E9A99193F6042A20B
:100E60000DCAF249710000804B0000803F0000C0B5
:0F0E70003F00AAB83FC623F6B80040763F000007
:100E8000000E1D6E010E1C6E000E1F6E000E1E6EFB
:100E900006501C14086E07501D14096E08500910E6
:100EA000D8B455EF07F057EF07F066EF07F0D8908A
:100EB0001E34D96E1F34DA6E0A0ED926000EDA22DD
:100EC000010EDE6E000EDD6E73EF07F0D8901E345B
:100ED000D96E1F34DA6E0A0ED926000EDA22000E01
:100EE000DE6E000EDD6ED8901C361D361E4A1F2A9F
:100EF0001FBE84EF07F01F5009E1090E1E5CD8A049
:100F000084EF07F086EF07F048EF07F00AB002D051
:100F10007F9001D07F800CB002D07F9201D07F8281
:100F20000EB002D0799401D0798410B002D07E9CAA
:100F300001D07E8C12B002D0799801D0798814B09B
:100F400002D0799A01D0798A16B002D07E9001D071
:100F50007E8018B002D07A9001D07A801AB002D088
:100F60007A9201D07A821200808688967C8E849E46
:100F7000000E316E010E306E5BEC09F0F8EC08F0FB
:100F80002FEC09F01DEC09F00BEC09F065EC09F011
:100F90004EEC09F0E0EC08F079EC08F0E0EC08F039
:100FA00006C020F007C021F031BEE0EF07F031505D
:100FB00009E1020E305CD8A0E0EF07F0E2EF07F0A5
:100FC000F3EF07F031BEF0EF07F0315007E1050E07
:100FD000305CD8B0EEEF07F0F0EF07F0F3EF07F07A
:100FE0008096CCEF07F021BE01EF08F0215007E119
:100FF000320E205CD8B0FFEF07F001EF08F0CCEF25
:1010000007F031BE0FEF08F0315007E1060E305CFB
:10101000D8B00DEF08F00FEF08F01CEF08F031BE6C
:101020001CEF08F0315006E13004D8B01AEF08F098
:101030001CEF08F0CCEF07F08086CCEF07F045EF0F
:1010400000F0000E0B6E07BE2AEF08F028EF08F044
:1010500030EF08F0066C071ED8B0072A010E0B6EA1
:1010600009BE37EF08F035EF08F03BEF08F0086CE9
:10107000091ED8B0092A08500910D8B442EF08F068
:1010800044EF08F068EF08F0010E0A6E4CEF08F02C
:10109000D890083609360A2A09AE51EF08F053EF06
:1010A00008F048EF08F00850065C09500758D8A02F
:1010B0005CEF08F05EEF08F062EF08F00850065EA3
:1010C0000950075AD890093208320A2E53EF08F017
:1010D0000B50D8B46EEF08F070EF08F074EF08F022
:1010E000066C071ED8B0072A06C006F007C007F036
:1010F0001200020E2E182F10D8A481EF08F083EFF3
:1011000008F08FEF08F0304A312A30C006F031C0C5
:1011100007F040EC07F0000E2F6E000E2E6E180E3A
:1011200030183110D8A497EF08F099EF08F09FEF2E
:1011300008F02C4A2D2A000E316E000E306E2CC0A5
:1011400006F02DC007F0000E096E070E086E21ECA8
:1011500008F006500710D8A4B0EF08F0B2EF08F07E
:10116000B4EF08F02A4A2B2A6D0E2C1806E12D0444
:10117000D8A4BDEF08F0BFEF08F0C1EF08F0284A8F
:10118000292A12000E0135A1C8EF08F0CAEF08F0B5
:10119000DEEF08F080A6CFEF08F0D3EF08F0016A89
:1011A000012AD4EF08F0016A014601460146805049
:1011B0000118F70B0118806E0E0135913292110063
:1011C000608060B0E6EF08F0E8EF08F0E1EF08F0CB
:1011D00064CF08F0096A0850FF08086E0950D8A0CB
:1011E000E82A0008096E08C006F009C007F01200DE
:1011F000879087928194869C8198819A869082902C
:1012000082927F907F9279947E9C7998799A7E9051
:101210007A907A921200868E0E01D251F80B030951
:10122000D26FD351F80B0509D36FD083D089D18108
:101230005BEC09F00E01D08F1200868E0E01D251A8
:10124000F80B0309D26FD351F80B0509D36FD08384
:10125000D089D1835BEC09F00E01D08F1200D650FB
:101260001F0B4009D66ED688D650F00B0809D66EF3
:10127000D5880B0ED46EDB0ED36ED58E120000EE29
:1012800022F00E0EEE6AE806FDE132903292000E78
:10129000F86E0E0EF76E0001B4EF07F081860E01B6
:1012A00092870F015899FC0E5817030E5F6F6094D8
:1012B0006088608E1200F30E0E01C617C691C751EA
:1012C000E00B1409C76FC68F12000E012B81298B0A
:0C12D00021811F9BF28AF28CF28E12002A
:020000040020DA
:10000000FF0FFF0FFF0FFF0FFF0FFF0FFF0FFF0F80
:020000040030CA
:0C000000AAFFFFFF9FFFFFFFFFFFFFFFB5
:00000001FF
