:0400000035EF00F0E8
:060008005282C7EF0DF06B
:100018005280D8CF0AF0E8CF0BF0E0CF0CF00E01F9
:1000280033AB19EF00F01BEF00F022EF00F04D4A60
:100038004E2A090ED46EC30ED36E339B050E4B1891
:100048004C10D8A42AEF00F02CEF00F02DEF00F0B0
:1000580080860CC0E0FF0BC0E8FF0AC0D8FF5290B2
:060068001000A4EF0FF0F0
:100E00000025643A25643A25642025642D25642D47
:100E10002564200025642025642025642025642085
:100E20002530326400003CC0D9FF3DC0DAFFDECF80
:100E3000F6FFDDCFF7FF000EF86E0800F550250A2B
:100E4000D8A425EF07F027EF07F059EF08F03CC0D2
:100E5000D9FF3DC0DAFFDE2A000EDD22000E486E0B
:100E6000000E476E47C04FF049684A68000E000107
:100E70007A6F000E796F69EF07F04F823CC0D9FF9F
:100E80003DC0DAFFDE2A000EDD2269EF07F0000E1A
:100E90007A6F010E796F69EF07F03CC0D9FF3DC052
:100EA000DAFFDECFF6FFDDCFF7FF000EF86E0800A9
:100EB000F550406E416A4150000AD8B462EF07F025
:100EC00047EF07F04050300AD8B43DEF07F047EF46
:100ED00007F079517A11D8B470EF07F072EF07F08C
:100EE0004DEF07F03CC0D9FF3DC0DAFFDECFF6FF83
:100EF000DDCFF7FF000EF86E0800F5502A0AD8A4DF
:100F000084EF07F086EF07F0AFEF07F03CC0D9FFA2
:100F10003DC0DAFFDE2A000EDD223EC0D9FF3FC011
:100F2000DAFFDFCF40F0020EDE26DFCF41F0000E09
:100F3000DD2240C0D9FF41C0DAFFDECF47F0DDCF70
:100F400048F048BEA8EF07F0A6EF07F0E4EF07F07F
:100F50004F80476C481ED8B0482AE4EF07F03CC0E9
:100F6000D9FF3DC0DAFFDECF13F0DDCF14F042EC45
:100F70000BF013C047F014C048F0C6EF07F03CC0B8
:100F8000D9FF3DC0DAFFDE2A000EDD223CC0D9FFCA
:100F90003DC0DAFFDECFF6FFDDCFF7FF000EF86EC3
:100FA0000800F5CF40F0D00E4024416E426AFF0E9B
:100FB0004222425009E10A0E415CD8A0E2EF07F05C
:100FC000E4EF07F0BFEF07F03CC0D9FF3DC0DAFF08
:100FD000DECF7BF0DDCF7CF07BC0F6FF7CC0F7FF7F
:100FE000000EF86E0800F550640AD8B4FAEF07F066
:100FF000FCEF07F00CEF08F07BC0F6FF7CC0F7FFBA
:10100000000EF86E0800F550690AD8A40AEF08F03F
:101010000CEF08F050EF08F03EC0D9FF3FC0DAFFF8
:10102000DFCF40F0020EDE26DFCF41F0000EDD22E2
:1010300040C0D9FF41C0DAFFDECF71F0DDCF72F0E2
:101040000001000E72BFFF0E736F746F756F766FC5
:10105000776F786F010E7B25406E000E7C21416E0C
:101060003CC0D9FF3DC0DAFF40C0DEFF41C0DDFF1C
:101070003AC028F03BC029F071C02AF072C02BF0B2
:1010800073C02CF074C02DF075C02EF076C02FF018
:1010900077C030F078C031F070EC08F06FEF08F0F6
:1010A0003CC0D9FF3DC0DAFFDE2A000EDD226FEF23
:1010B00008F03CC0D9FF3DC0DAFFDECFF6FFDDCF40
:1010C000F7FF000EF86E0800F5500D6E0E6A3AC07C
:1010D0000FF03BC010F000EC0DF050EF08F01200E4
:1010E0002AC066F02BC067F02CC068F02DC069F0F4
:1010F0002EC06AF02FC06BF030C06CF031C06DF0C4
:1011000000016DBF86EF08F089EF08F0010E8AEF4D
:1011100008F0000E6E6F6E51D8B491EF08F093EFA7
:1011200008F0A3EF08F06D1F6C1F6B1F6A1F691F8B
:10113000681F671F666D000E6723682369236A2393
:101140006B236C236D234ABEA8EF08F0AAEF08F0CA
:10115000ABEF08F04F924ABEB8EF08F04A5006E1F4
:101160004904D8B0B6EF08F0B8EF08F0BEEF08F0C9
:10117000000E636F010E626FC2EF08F049C062F0AB
:101180004AC063F047C064F048C065F06E51D8B4FF
:10119000CCEF08F0CEEF08F0E5EF08F06407D8A038
:1011A00065076E51D8A4D7EF08F0D9EF08F0DFEF4C
:1011B00008F0000E616F2B0E606FE3EF08F0000E79
:1011C000616F2D0E606F60C06EF0000E706F1F0EAD
:1011D0006F6F000ED16F6AEF09F06F07D8A070072C
:1011E000B20E6F25D96E000E7021DA6E66C00DF05A
:1011F00067C00EF068C00FF069C010F06AC011F04F
:101200006BC012F06CC013F06DC014F00A0E156EB6
:10121000000E166E000E176E000E186E000E196E80
:10122000000E1A6E000E1B6E000E1C6E90EC0AF083
:101230000DC032F00EC033F00FC034F010C035F0E6
:1012400011C036F012C037F013C038F014C039F0B6
:1012500032C01FF033C020F0D6EC10F01F50300F1A
:10126000DF6E00016207D8A063076407D8A0650796
:1012700066C00DF067C00EF068C00FF069C010F0D6
:101280006AC011F06BC012F06CC013F06DC014F0A6
:101290000A0E156E000E166E000E176E000E186EFA
:1012A000000E196E000E1A6E000E1B6E000E1C6EE4
:1012B000CCEC09F00DC066F00EC067F00FC068F00E
:1012C00010C069F011C06AF012C06BF013C06CF06E
:1012D00014C06DF0000170BF76EF09F0705108E1A5
:1012E0006F05D8A076EF09F078EF09F0A8EF09F0C4
:1012F00066516711681169116A116B116C116D11DA
:10130000D8A485EF09F087EF09F0EDEF08F063BF8F
:1013100094EF09F0635106E16205D8B092EF09F04D
:1013200094EF09F0EDEF08F065BF9FEF09F065510C
:1013300008E16405D8A09FEF09F0A1EF09F0A8EF3C
:1013400009F04FB2A6EF09F0A8EF09F0EDEF08F0B1
:101350006E51D8B4AEEF09F0B0EF09F0BBEF09F071
:101360006F07D8A07007B20E6F25D96E000E7021DE
:10137000DA6E6EC0DFFF28C01DF029C01EF0B20E6D
:101380006F251F6E000E7021206E64C021F065C0B5
:1013900022F01DEC0EF01200000E1E6E1CBED5EFEA
:1013A00009F0D3EF09F0E7EF09F01C1E1B1E1A1E0F
:1013B000191E181E171E161E156C000E1622172257
:1013C000182219221A221B221C22010E1E6E14BE84
:1013D000EEEF09F0ECEF09F000EF0AF0141E131E17
:1013E000121E111E101E0F1E0E1E0D6C000E0E2260
:1013F0000F2210221122122213221422010E1E1A71
:1014000020EE1FF0070EDE6AE806FDE2155016100A
:101410001710181019101A101B101C10D8B413EF45
:101420000AF015EF0AF067EF0AF0010E1D6E23EFC8
:101430000AF0D890153616361736183619361A3679
:101440001B361C361D2A1CAE28EF0AF02AEF0AF0C4
:1014500019EF0AF0D8901F3620362136223623366F
:1014600024362536263615500D5C16500E5817506A
:101470000F5818501058195011581A5012581B5024
:1014800013581C501458D8A048EF0AF04AEF0AF03D
:101490005BEF0AF015500D5E16500E5A17500F5A9A
:1014A0001850105A1950115A1A50125A1B50135AE8
:1014B0001C50145A1F80D8901C321B321A32193219
:1014C00018321732163215321D2E2AEF0AF01E502E
:1014D000D8B46DEF0AF06FEF0AF07FEF0AF0261E26
:1014E000251E241E231E221E211E201E1F6C000EE0
:1014F00020222122222223222422252226221FC02A
:101500000DF020C00EF021C00FF022C010F023C05B
:1015100011F024C012F025C013F026C014F0120000
:10152000000E1E6E14BE99EF0AF097EF0AF0ABEFB3
:101530000AF0141E131E121E111E101E0F1E0E1E68
:101540000D6C000E0E220F221022112212221322E5
:101550001422010E1E6E1CBEB2EF0AF0B0EF0AF0AC
:10156000C2EF0AF01C1E1B1E1A1E191E181E171E83
:10157000161E156C000E16221722182219221A2286
:101580001B221C22155016101710181019101A10B3
:101590001B101C10D8B4CFEF0AF0D1EF0AF019EFEE
:1015A0000BF0010E1D6EDFEF0AF0D89015361636DF
:1015B0001736183619361A361B361C361D2A1CAE3D
:1015C000E4EF0AF0E6EF0AF0D5EF0AF015500D5CF3
:1015D00016500E5817500F581850105819501158CF
:1015E0001A5012581B5013581C501458D8A0FBEF17
:1015F0000AF0FDEF0AF00DEF0BF015500D5E1650DE
:101600000E5A17500F5A1850105A1950115A1A5092
:10161000125A1B50135A1C50145AD8901C321B32A9
:101620001A32193218321732163215321D2EE6EFE1
:101630000AF01E50D8B41FEF0BF021EF0BF031EF82
:101640000BF0141E131E121E111E101E0F1E0E1E56
:101650000D6C000E0E220F221022112212221322D4
:1016600014220DC00DF00EC00EF00FC00FF010C010
:1016700010F011C011F012C012F013C013F014C01A
:1016800014F01200000E1B6E000E1A6E000E196E82
:10169000000E186E4EEF0BF0134A142A13C0F6FF1B
:1016A00014C0F7FF000EF86E0800F550200AD8B4F9
:1016B0005CEF0BF05EEF0BF04CEF0BF013C0F6FF9E
:1016C00014C0F7FF000EF86E0800F5CF15F0F70E06
:1016D0001524166E176AFF0E1722175009E1050E22
:1016E000165CD8A076EF0BF078EF0BF04CEF0BF018
:1016F00082EF0BF0000E196E010E186E134A142AB9
:10170000BBEF0BF013C0F6FF14C0F7FF000EF86E2E
:101710000800F550156E166A1650000AD8B493EFFB
:101720000BF0BBEF0BF015502B0AD8B47EEF0BF08B
:10173000060AD8B47AEF0BF0BBEF0BF01AC00DF02D
:101740001BC00EF0000E106E0A0E0F6E94EC11F01E
:1017500013C0F6FF14C0F7FF000EF86E0800F55036
:101760000D5E000E0E5A300E0D241A6E000E0E2065
:101770001B6E7EEF0BF013C0F6FF14C0F7FF000ED8
:10178000F86E0800F5CF15F0D00E1524166E176A06
:10179000FF0E1722175009E10A0E165CD8A0D3EFEE
:1017A0000BF0D5EF0BF09EEF0BF018501910D8A4EA
:1017B000DCEF0BF0DEEF0BF0ECEF0BF01AC015F0E6
:1017C0001BC016F0151E161E154A162A15C013F05A
:1017D00016C014F0F0EF0BF01AC013F01BC014F099
:1017E0001200030E0001EC150D6E000EED150E6ECD
:1017F0000D500E10D8A4FFEF0BF001EF0CF005EF29
:101800000CF0000ED56F1D0ED46F030EEC150D6E8F
:10181000000EED150E6E0D500E10D8B412EF0CF038
:1018200014EF0CF018EF0CF0000ED56F1C0ED46FF7
:10183000B0514D1807E1B1514E18D8A422EF0CF069
:1018400024EF0CF02AEF0CF04B4A4C2A000E4E6E9F
:10185000000E4D6EAE514B1807E1AF514C18D8A495
:1018600034EF0CF036EF0CF04AEF0CF0F24BF32BA8
:10187000F04BF12BEE4BEF2B000E4C6E000E4B6E2F
:10188000000E01016B6F010E6A6F000E0001EB6F1D
:10189000010EEA6F080EF019F111D8A452EF0CF006
:1018A00054EF0CF058EF0CF0000EF16F010EF06FDA
:1018B000D8905034D96E5134DA6ED00ED926000E3D
:1018C000DA22DECF0DF0DDCF0EF0010E0D26000E78
:1018D0000E22EE510D1807E1EF510E18D8A473EF48
:1018E0000CF075EF0CF07BEF0CF0000EEF6F010EBB
:1018F000EE6F504A512A0D0E50185110D8A483EFA4
:101900000CF085EF0CF08BEF0CF0000E516E010E19
:10191000506EEC4BED2B1200000E246E010E236E68
:10192000000E266E000E256E0D5023140F6E0E5005
:101930002414106E0F501010D8B4A1EF0CF0A3EFC8
:101940000CF0B2EF0CF0D8902534D96E2634DA6E54
:10195000110ED926000EDA22010EDE6E000EDD6EAB
:10196000BFEF0CF0D8902534D96E2634DA6E110E04
:10197000D926000EDA22000EDE6E000EDD6ED89043
:1019800023362436254A262A26BED0EF0CF02650D0
:1019900009E1090E255CD8A0D0EF0CF0D2EF0CF0D5
:1019A00094EF0CF011B002D07F9001D07F8013B083
:1019B00002D07F9201D07F8215B002D0799401D0FD
:1019C000798417B002D07E9C01D07E8C19B002D0F1
:1019D000799801D079881BB002D0799A01D0798AA0
:1019E0001DB002D07E9001D07E801FB002D07A90D0
:1019F00001D07A8021B002D07A9201D07A8212008E
:101A00000F501010D8B407EF0DF009EF0DF012EFE2
:101A10000DF00F501010D8A410EF0DF012EF0DF0D4
:101A200017EF0DF00D5036EC12F064EF0DF020EED4
:101A300009F00F50D9261050DA22DE50DE10D8B44B
:101A400024EF0DF026EF0DF041EF0DF020EE09F040
:101A50000F50D9261050DA2210EE03F00F50E12675
:101A60001050E222DE50E65CE650800A156EDE5031
:101A7000800A1558D8B03FEF0DF041EF0DF064EF3C
:101A80000DF020EE03F00F50D9261050DA22DECFF1
:101A900011F0DDCF12F00FC0D9FF10C0DAFFDECF9A
:101AA00013F0DDCF14F011501324D96E125014200E
:101AB000DA6E0DC0DFFF20EE03F00F50D926105074
:101AC000DA22DE2A000EDD221200000E126E10BE97
:101AD0006EEF0DF06CEF0DF074EF0DF00F6C101E4B
:101AE000D8B0102A010E126E0EBE7BEF0DF079EF0A
:101AF0000DF081EF0DF00D6C0E1ED8B00E2A010E08
:101B0000121A000E146E000E136E0F501010D8B47F
:101B10008CEF0DF08EEF0DF0B6EF0DF0010E116EA3
:101B200096EF0DF0D8900F361036112A10AE9BEFBD
:101B30000DF09DEF0DF092EF0DF0D89013361436A6
:101B40000F500D5C10500E58D8A0A9EF0DF0ABEF60
:101B50000DF0B0EF0DF00F500D5E10500E5A1380C7
:101B6000D89010320F32112E9DEF0DF01250D8B4D4
:101B7000BCEF0DF0BEEF0DF0C2EF0DF0136C141EB4
:101B8000D8B0142A13C00DF014C00EF01200F3CF19
:101B900008F0F4CF09F00E0135A1D1EF0DF0D3EF2D
:101BA0000DF017EF0EF080A6D8EF0DF0DCEF0DF082
:101BB000076A072ADDEF0DF0076A07460746074662
:101BC00080500718F70B0718806E80B6EAEF0DF00B
:101BD000ECEF0DF0FDEF0DF04BC001F04CC002F04A
:101BE000000E046E0A0E036EBAEC11F04D50012483
:101BF0000101686F4E500220696F80A602EF0EF05F
:101C000004EF0EF015EF0EF04BC001F04CC002F0E7
:101C1000000E046E0A0E036EBAEC11F04D50012452
:101C20000101666F4E500220676F0E01359109C0A9
:101C3000F4FF08C0F3FF529211004FA022EF0EF004
:101C400024EF0EF02EEF0EF01FC016F020C017F09C
:101C50001DC018F01EC019F0B4EC10F022BE33EF16
:101C60000EF035EF0EF03BEF0EF021C026F022C053
:101C700027F03FEF0EF0000E276E000E266E000ECE
:101C8000256E000E246E51EF0EF0000E0E6E200E2B
:101C90000D6E1DC00FF01EC010F000EC0DF0244AB8
:101CA000252A2650245C2550800A236E2750800A5E
:101CB0002358D8A05EEF0EF060EF0EF045EF0EF067
:101CC0004FB065EF0EF067EF0EF071EF0EF01FC032
:101CD00016F020C017F01DC018F01EC019F0B4ECAB
:101CE00010F012008394839C82968294859285964C
:101CF0007A967A947D927D967B947B9C040E116EED
:101D0000400E106E260EE82EFED7102EFCD7112E98
:101D1000FAD700D0030ED8EC0FF0D50EE82EFED780
:101D200000F0000E0E6E2C0E66EC11F0D50EE82EB3
:101D3000FED700F0000E0E6E2C0E66EC11F0D50EE4
:101D4000E82EFED700F0000E0E6E0C0E66EC11F0C1
:101D5000D50EE82EFED700F0000E0E6E010E66ECDA
:101D600011F0200E106ECA0EE82EFED7102EFCD7F2
:101D7000000E0E6E070E66EC11F0000E0E6E0C0ECD
:101D800066EC11F01200030E50185110D8A4CBEFDE
:101D90000EF0CDEF0EF0E3EF0EF0070E0001F0199C
:101DA000F111D8A4D6EF0EF0D8EF0EF0E3EF0EF05D
:101DB0004B044C10D8A4DFEF0EF0E1EF0EF0E3EF90
:101DC0000EF04B4A4C2A0A0E50185110D8A4EBEFD3
:101DD0000EF0EDEF0EF012EF0FF0070E0001F0190C
:101DE000F111D8A4F6EF0EF0F8EF0EF012EF0FF0AD
:101DF000020E4B184C10D8A400EF0FF002EF0FF0BA
:101E000012EF0FF0EA05EB11D8A409EF0FF00BEF7A
:101E10000FF012EF0FF04B06D8A04C06000EEB6F40
:101E2000000EEA6F120032EC12F0A7EC11F0F1ECA8
:101E300011F0CDEC11F0DFEC11F022EC12F0F6EC29
:101E400010F072EC0EF00EEC12F0F1EC0BF04BC057
:101E50000DF04CC00EF08CEC0CF015EC11F068C1DC
:101E600015F069C116F066C117F067C118F05DEC96
:101E70000FF0C3EC0EF0010E4CEC11F0000E00015F
:101E8000A06F010EA16F66C1A2F067C1A3F068C187
:101E9000A4F069C1A5F06AC1A6F06BC1A7F064C146
:101EA000A8F065C1A9F04DC0AAF04EC0ABF00CEC93
:101EB00010F025EF0FF035EF00F0000E1C6E000E55
:101EC0001B6E175015240D6E185016200E6E000E46
:101ED000106E020E0F6E65EC0DF00DC019F00EC005
:101EE0001AF0195078081B6E1A50D8A0E82A00087A
:101EF0001C6E170E4B184C10D8A481EF0FF083EF17
:101F00000FF09FEF0FF0050E4D184E10D8A48BEF79
:101F10000FF08DEF0FF09FEF0FF001016A056B11CD
:101F2000D8A495EF0FF097EF0FF09FEF0FF01B5035
:101F30004D261C504E22000E6B6F000E6A6F1BC0A8
:101F400064F11CC065F112006A0EF66E240EF76E85
:101F5000000EF86E0900F5CF6AF10900F5CF6BF1BC
:101F6000020EF66E240EF76E000EF86E00EED2F042
:101F700010EE1AF00900F5CFEEFFE550E150FAE15E
:101F80000101696B686B676B666B656B646B00EE78
:101F9000ACF0260EEE6AE806FDE100EE47F0090E11
:101FA000EE6AE806FDE152905292000113EF0FF045
:101FB0000D6E0DA0DEEF0FF0E0EF0FF0E3EF0FF08E
:101FC0007A86E4EF0FF07A960DA2E9EF0FF0EBEFCF
:101FD0000FF0EEEF0FF07A84EFEF0FF07A940DA48C
:101FE000F4EF0FF0F6EF0FF0F9EF0FF07D86FAEF58
:101FF0000FF07D960DA6FFEF0FF001EF10F004EF4C
:1020000010F07D8205EF10F07D922BEC12F01A0E8D
:10201000E82EFED700D01200A0C083F0A1C084F04B
:10202000140E0001856F0E0E866FA2C087F0A3C04C
:1020300088F0A4C089F0A5C08AF0A6C08BF0A7C024
:102040008CF0A8C08DF0A9C08EF0AAC08FF0ABC0F4
:1020500090F068EC10F0A0C010F0A1C011F032ECCC
:1020600011F0520E466E2B0E456E000EE82EFED776
:10207000452EFCD7462EFAD700D012007FC043F081
:1020800080C044F052EF10F07DC03AF07EC03BF0CB
:10209000430E3C6E000E3D6E81C03EF082C03FF0AC
:1020A00013EC07F043C0F6FF44C0F7FF000EF86ED4
:1020B0000800F5500009D8A460EF10F062EF10F0AE
:1020C00044EF10F0000E00017E6F000E7D6F1200D5
:1020D000870E0001936F000E946F83C095F084C04B
:1020E00096F0000E996F000E986F000E9F6F000E15
:1020F0009E6F950E7D6F000E7E6F85C07FF086C04F
:1021000080F0930E816F000E826F3EEC10F00001A4
:1021100098518325D96E99518421DA6E000EDF6EB5
:102120001200010E116E200E0D180E10D8B49BEF88
:1021300010F09DEF10F0B0EF10F0F70E0D240F6EC1
:10214000FF0E0E20106E105009E1050E0F5CD8A096
:10215000ACEF10F0AEEF10F0B0EF10F0000E116E1B
:1021600011C00DF00E6A1200000E1C6E000E1B6EE8
:10217000C5EF10F01AC00DF00E6A18C00FF019C0AC
:1021800010F000EC0DF01B4A1C2A1B501624D96ECF
:102190001C501720DA6EDF501A6E1A50D8A4D3EFF5
:1021A00010F0D5EF10F0BAEF10F0120020BEE3EF00
:1021B00010F0205006E11F04D8B0E1EF10F0E3EF7B
:1021C00010F0F1EF10F01FC021F020C022F0211E0E
:1021D000221E214A222A21C01FF022C020F0F5EF42
:1021E00010F01FC01FF020C020F01200000E4E6E35
:1021F000000E4D6E000E4C6E000E4B6E000E000178
:10220000F36F010EF26F000EEF6F1D0EEE6F000EFA
:10221000F16F060EF06F070EED6FE60EEC6F000E1D
:10222000516E0A0E506E808612004CBE20EF11F0E7
:102230004C5008E14B04D8A020EF11F022EF11F030
:1022400031EF11F04CBE30EF11F04C5007E1050EAC
:102250004B5CD8B02EEF11F030EF11F031EF11F0F0
:10226000809612003FEF11F0010E0E6E10C0D9FFE4
:1022700011C0DAFFDF5066EC11F0104A112A10C0CD
:10228000D9FF11C0DAFFDF50D8A449EF11F04BEFAE
:1022900011F034EF11F01200106E10A052EF11F097
:1022A00054EF11F059EF11F0000E0E6E800E66EC37
:1022B00011F010A25EEF11F060EF11F065EF11F078
:1022C000000E0E6EC00E66EC11F012000F6E0EA026
:1022D0006CEF11F06EEF11F071EF11F07B8C72EF7B
:1022E00011F07B9C0F380F0BD8EC0FF00F50D8EC8F
:1022F0000FF0A00E00D0E82EFDD71200D00E0D2456
:102300000F6EFF0E0E20106E10500AE10A0E0F5CC9
:10231000D8A08DEF11F090EF11F0010E91EF11F0B8
:10232000000E0D6E0E6A12000D500F02F3CF11F069
:10233000F4CF12F00D501002F35012260E500F027F
:10234000F350122611C00DF012C00EF0120087904B
:1023500087928194869C8198819A869082908292BD
:102360007F907F9279947E9C7998799A7E907A90EA
:102370007A92120001500302F3CF05F0F4CF06F079
:1023800001500402F350062602500302F3500626C1
:1023900005C001F006C002F01200868E0E01D25177
:1023A000F80B0309D26FD351F80B0509D36FD08313
:1023B000D089D18318EC12F00E01D08F1200868ED6
:1023C0000E01D251F80B0309D26FD351F80B050956
:1023D000D36FD083D089D18118EC12F00E01D08F49
:1023E0001200D6501F0B4009D66ED688D650F00B7F
:1023F0000809D66ED5880B0ED46EDB0ED36ED58E43
:1024000012001F001C001F001E001F001E001F00E6
:102410001F001E001F001E001F000100000E000113
:10242000B16F0A0EB06F000EAF6F180EAE6F1200D4
:10243000F30E0E01C617C691C751E00B1409C76F02
:10244000C68F12000E012B81298B21811F9BF28ADE
:10245000F28CF28E12007B840A0EE82EFED700D09A
:0E2460007B94120080968896120001001200F4
:020000040020DA
:10000000FF0FFF0FFF0FFF0FFF0FFF0FFF0FFF0F80
:020000040030CA
:0C000000AAFFFFFF9FFFFFFFFFFFFFFFB5
:00000001FF
