:0400000054EF00F0C9
:060008005582B9EF0FF074
:100018005580D8CF03F0E8CF04F0E0CF05F00E010B
:1000280033AB19EF00F01BEF00F024EF00F00001F4
:10003800A14BA22B090ED46EC30ED36E0E01339BB7
:10004800050E0001A119A211D8A42DEF00F02FEF81
:1000580000F040EF00F07CAE34EF00F038EF00F035
:10006800026A022A39EF00F0026A023202327C5038
:1000780002187F0B02187C6E050E00019F19A01153
:10008800D8A449EF00F04BEF00F04CEF00F0808669
:1000980005C0E0FF04C0E8FF03C0D8FF559010007A
:0400A800E8EF0EF07F
:100E00000000000000DCCFD1350000000000C0155C
:100E10003F6042A20D70A5EC363BAAB83F4F387632
:100E20003F3CAA38338CBEBF350072313F18723157
:100E30003F4CBB31330EEADDB555B38A38610B3612
:100E4000BBABAA2A3E42F1533E55326C3E05A38B02
:100E50003EABAAAA3EB76DDB3E9A99193F6042A20B
:100E60000DCAF249710000804B0000803F0000C0B5
:100E70003F00AAB83FC623F6B80040763F25643A43
:100E800025643A25642025642D25642D2564000001
:100E900023C039F024C03AF025C03BF026C03CF016
:100EA00027C03DF028C03EF029C03FF02AC040F0E6
:100EB00040BE5DEF07F060EF07F0010E61EF07F055
:100EC000000E416E4150D8B468EF07F06AEF07F0AA
:100ED0007AEF07F0401E3F1E3E1E3D1E3C1E3B1E8D
:100EE0003A1E396C000E3A223B223C223D223E2221
:100EF0003F22402251BE87EF07F0515006E15004D7
:100F0000D8B085EF07F087EF07F08DEF07F0000E00
:100F1000366E010E356E91EF07F050C035F051C0BE
:100F200036F09BC037F09CC038F04150D8B49BEFEE
:100F300007F09DEF07F0B4EF07F03706D8A03806AA
:100F40004150D8A4A6EF07F0A8EF07F0AEEF07F0E6
:100F5000000E346E2B0E336EB2EF07F0000E346EBF
:100F60002D0E336E33C041F0000E436E1F0E426EE5
:100F7000000E0101876F39EF08F04206D8A0430642
:100F8000680E4224D96E010E4320DA6E39C006F095
:100F90003AC007F03BC008F03CC009F03DC00AF081
:100FA0003EC00BF03FC00CF040C00DF00A0E0E6EBC
:100FB000000E0F6E000E106E000E116E000E126EFF
:100FC000000E136E000E146E000E156E4AEC09F042
:100FD00006C02BF007C02CF008C02DF009C02EF081
:100FE0000AC02FF00BC030F00CC031F00DC032F051
:100FF0002BC018F02CC019F07BEC0FF01850300FFC
:10100000DF6E3506D8A036063706D8A0380639C0B8
:1010100006F03AC007F03BC008F03CC009F03DC004
:101020000AF03EC00BF03FC00CF040C00DF00A0EBD
:101030000E6E000E0F6E000E106E000E116E000E82
:10104000126E000E136E000E146E000E156E86ECFE
:1010500008F006C039F007C03AF008C03BF009C0FC
:101060003CF00AC03DF00BC03EF00CC03FF00DC09C
:1010700040F043BE44EF08F0435008E14204D8A0DA
:1010800044EF08F046EF08F062EF08F039503A10EC
:101090003B103C103D103E103F104010D8A453EFC1
:1010A00008F055EF08F0BDEF07F036BE62EF08F02C
:1010B000365006E13504D8B060EF08F062EF08F072
:1010C000BDEF07F04150D8B468EF08F06AEF08F0C0
:1010D00075EF08F04206D8A04306680E4224D96E88
:1010E000010E4320DA6E41C0DFFF21C016F022C09E
:1010F00017F0680E4224186E010E4320196E37C097
:101100001AF038C01BF03FEC0DF01200000E176E05
:1011100015BE8FEF08F08DEF08F0A1EF08F0151E57
:10112000141E131E121E111E101E0F1E0E6C000E1A
:101130000F22102211221222132214221522010E34
:10114000176E0DBEA8EF08F0A6EF08F0BAEF08F092
:101150000D1E0C1E0B1E0A1E091E081E071E066C05
:10116000000E0722082209220A220B220C220D223D
:10117000010E171A20EE18F0070EDE6AE806FDE2EF
:101180000E500F1010101110121013101410151013
:10119000D8B4CDEF08F0CFEF08F021EF09F0010E41
:1011A000166EDDEF08F0D8900E360F361036113679
:1011B0001236133614361536162A15AEE2EF08F03D
:1011C000E4EF08F0D3EF08F0D890183619361A3645
:1011D0001B361C361D361E361F360E50065C0F5051
:1011E0000758105008581150095812500A581350F7
:1011F0000B5814500C5815500D58D8A002EF09F098
:1012000004EF09F015EF09F00E50065E0F50075A73
:101210001050085A1150095A12500A5A13500B5ABA
:1012200014500C5A15500D5A1880D890153214329B
:1012300013321232113210320F320E32162EE4EF08
:1012400008F01750D8B427EF09F029EF09F039EF6B
:1012500009F01F1E1E1E1D1E1C1E1B1E1A1E191EFF
:10126000186C000E19221A221B221C221D221E227B
:101270001F2218C006F019C007F01AC008F01BC0E2
:1012800009F01CC00AF01DC00BF01EC00CF01FC0FE
:101290000DF01200000E176E0DBE53EF09F051EF66
:1012A00009F065EF09F00D1E0C1E0B1E0A1E091E2B
:1012B000081E071E066C000E0722082209220A22B9
:1012C0000B220C220D22010E176E15BE6CEF09F0D9
:1012D0006AEF09F07CEF09F0151E141E131E121E92
:1012E000111E101E0F1E0E6C000E0F221022112256
:1012F00012221322142215220E500F10101011105A
:101300001210131014101510D8B489EF09F08BEFD8
:1013100009F0D3EF09F0010E166E99EF09F0D8909D
:101320000E360F3610361136123613361436153681
:10133000162A15AE9EEF09F0A0EF09F08FEF09F025
:101340000E50065C0F50075810500858115009589D
:1013500012500A5813500B5814500C5815500D5871
:10136000D8A0B5EF09F0B7EF09F0C7EF09F00E50BC
:10137000065E0F50075A1050085A1150095A125061
:101380000A5A13500B5A14500C5A15500D5AD89033
:101390001532143213321232113210320F320E3231
:1013A000162EA0EF09F01750D8B4D9EF09F0DBEFF3
:1013B00009F0EBEF09F00D1E0C1E0B1E0A1E091E94
:1013C000081E071E066C000E0722082209220A22A8
:1013D0000B220C220D2206C006F007C007F008C041
:1013E00008F009C009F00AC00AF00BC00BF00CC0ED
:1013F0000CF00DC00DF0120046C0D9FF47C0DAFF57
:10140000DECFF6FFDDCFF7FF0800F550250AD8A4A0
:101410000CEF0AF00EEF0AF08EEF0AF046C0D9FF8B
:1014200047C0DAFFDE2A000EDD22000E00019C6FAD
:10143000000E9B6F9BC052F05068516846C0D9FFA8
:1014400047C0DAFFDECF68F0DDCF69F068C0F6FF95
:1014500069C0F7FF0800F550640AD8B432EF0AF00B
:1014600034EF0AF042EF0AF068C0F6FF69C0F7FFF8
:101470000800F550690AD8A440EF0AF042EF0AF0DC
:1014800085EF0AF048C0D9FF49C0DAFFDFCF4AF044
:10149000020EDE26DFCF4BF0000EDD224AC0D9FF60
:1014A0004BC0DAFFDECF60F0DDCF61F0000E61BF30
:1014B000FF0E626F636F646F656F666F676F010E1B
:1014C00068254A6E000E69214B6E46C0D9FF47C0A1
:1014D000DAFF4AC0DEFF4BC0DDFF44C021F045C04B
:1014E00022F060C023F061C024F062C025F063C028
:1014F00026F064C027F065C028F066C029F067C0F8
:101500002AF048EC07F0A2EF0AF046C0D9FF47C026
:10151000DAFFDE2A000EDD22A2EF0AF046C0D9FF74
:1015200047C0DAFFDECFF6FFDDCFF7FF0800F5504A
:10153000066E076A44C008F045C009F09BEC0BF04A
:1015400085EF0AF01200030E0101A015206E000EB7
:10155000A115216E20502110D8A4B1EF0AF0B3EFED
:101560000AF0B9EF0AF0000E8B6F1D0E8A6FBDEF07
:101570000AF0000E8B6F1C0E8A6F0001A105A211EC
:10158000D8A4C5EF0AF0C7EF0AF0CDEF0AF09F4BE1
:10159000A02B000EA26F000EA16F050E9F19A011C7
:1015A000D8A4D5EF0AF0D7EF0AF0E3EF0AF0010173
:1015B000A44BA52B534A542AA24BA32B000E000187
:1015C000A06F000E9F6F080E53185410D8A4EBEFB5
:1015D0000AF0EDEF0AF0F1EF0AF0000E546E010E82
:1015E000536ED890A335D96EA435DA6E860ED926FF
:1015F000010EDA220101A251DE1807E1A351DE1823
:10160000D8A405EF0BF007EF0BF00EEF0BF0000E78
:10161000A36F000EA26F0001A34BA42B0D0E0001BF
:10162000A319A411D8A417EF0BF019EF0BF020EFBA
:101630000BF0000EA46F000EA36F0101A04BA12BB5
:1016400053C006F054C007F027EC0BF01200000E58
:101650001D6E010E1C6E000E1F6E000E1E6E0650DB
:101660001C14086E07501D14096E08500910D8B4D8
:101670003CEF0BF03EEF0BF04DEF0BF0D8901E342B
:10168000D96E1F34DA6E0A0ED926000EDA22010E48
:10169000DE6E000EDD6E5AEF0BF0D8901E34D96E60
:1016A0001F34DA6E0A0ED926000EDA22000EDE6E24
:1016B000000EDD6ED8901C361D361E4A1F2A1FBE36
:1016C0006BEF0BF01F5009E1090E1E5CD8A06BEF09
:1016D0000BF06DEF0BF02FEF0BF00AB002D07F9004
:1016E00001D07F800CB002D07F9201D07F820EB0FB
:1016F00002D0799401D0798410B002D07E9C01D0C0
:101700007E8C12B002D0799801D0798814B002D0C2
:10171000799A01D0798A16B002D07E9001D07E806D
:1017200018B002D07A9001D07A801AB002D07A92A2
:1017300001D07A82120008500910D8B4A2EF0BF041
:10174000A4EF0BF0ADEF0BF008500910D8A4ABEFED
:101750000BF0ADEF0BF0B2EF0BF00650B5EC10F064
:10176000FFEF0BF020EE09F00850D9260950DA22DD
:10177000DE50DE10D8B4BFEF0BF0C1EF0BF0DCEFA2
:101780000BF020EE09F00850D9260950DA2210EEAD
:1017900003F00850E1260950E222DE50E65CE650F4
:1017A000800A0E6EDE50800A0E58D8B0DAEF0BF0C9
:1017B000DCEF0BF0FFEF0BF020EE03F00850D92622
:1017C0000950DA22DECF0AF0DDCF0BF008C0D9FFD6
:1017D00009C0DAFFDECF0CF0DDCF0DF00A500C248B
:1017E000D96E0B500D20DA6E06C0DFFF20EE03F03D
:1017F0000850D9260950DA22DE2A000EDD22120016
:10180000000E0B6E09BE09EF0CF007EF0CF00FEFA6
:101810000CF0086C091ED8B0092A010E0B6E07BE29
:1018200016EF0CF014EF0CF01CEF0CF0066C071E1A
:10183000D8B0072A010E0B1A000E0D6E000E0C6EAA
:1018400008500910D8B427EF0CF029EF0CF051EF35
:101850000CF0010E0A6E31EF0CF0D8900836093604
:101860000A2A09AE36EF0CF038EF0CF02DEF0CF031
:10187000D8900C360D360850065C09500758D8A091
:1018800044EF0CF046EF0CF04BEF0CF00850065E06
:101890000950075A0C80D890093208320A2E38EFC6
:1018A0000CF00B50D8B457EF0CF059EF0CF05DEF83
:1018B0000CF00C6C0D1ED8B00D2A0CC006F00DC03B
:1018C00007F012008394839C829682948592859679
:1018D0007A967A947D927D967B947B9C040E0A6E18
:1018E000400E096E260EE82EFED7092EFCD70A2ED2
:1018F000FAD700D0030E5CEC0EF0D50EE82EFED722
:1019000000F0000E076E2C0E0BEC10F0D50EE82E3A
:10191000FED700F0000E076E2C0E0BEC10F0D50E6B
:10192000E82EFED700F0000E076E0C0E0BEC10F048
:10193000D50EE82EFED700F0000E076E010E0BEC60
:1019400010F0200E096ECA0EE82EFED7092EFCD725
:10195000000E076E070E0BEC10F0000E076E0C0E5B
:101960000BEC10F01200B0EC10F036EC10F06DEC57
:1019700010F049EC10F05BEC10F0A0EC10F07DECF6
:1019800010F05AEC0FF062EC0CF0010EF1EC0FF0DD
:10199000000E00018D6F010E8E6F9FC08FF0A0C0F2
:1019A00090F0A1C091F0A2C092F0A2C193F0A3C1A7
:1019B00094F0A3C095F0A4C096F0A0C197F0A1C187
:1019C00098F0FFEC0CF0A3EC0AF09BEC0FF025EC88
:1019D0000EF0EEEC0DF025EC0EF00CC013F00DC087
:1019E00014F0EEEC0DF00CC015F00DC016F0B6ECD6
:1019F0000DF090EC0EF0C5EF0CF054EF00F08DC040
:101A000070F08EC071F07D0E0001726F0E0E736F5C
:101A10008FC074F090C075F091C006F092C007F0CE
:101A2000000E096E3C0E086E7CEC0DF006C076F0E0
:101A300007C077F091C078F092C079F093C07AF047
:101A400094C07BF095C07CF096C07DF097C07EF08E
:101A500098C07FF0BFEC0EF08DC009F08EC00AF088
:101A6000D7EC0FF0520E4F6E2B0E4E6E000EE82E7E
:101A7000FED74E2EFCD74F2EFAD700D012001BBE39
:101A800044EF0DF046EF0DF04CEF0DF01AC01FF0D3
:101A90001BC020F050EF0DF0000E206E000E1F6EE8
:101AA000000E1E6E000E1D6E62EF0DF0000E076E32
:101AB000200E066E16C008F017C009F09BEC0BF064
:101AC0001D4A1E2A1F501D5C1E50800A1C6E20508D
:101AD000800A1C58D8A06FEF0DF071EF0DF056EF93
:101AE0000DF018C00FF019C010F016C011F017C09B
:101AF00012F038EC0FF01200000E0C6E000E0B6EA0
:101B000008500910D8B487EF0DF089EF0DF0B1EF50
:101B10000DF0010E0A6E91EF0DF0D89008360936DF
:101B20000A2A09AE96EF0DF098EF0DF08DEF0DF04B
:101B3000D8900B360C360850065C09500758D8A0D0
:101B4000A4EF0DF0A6EF0DF0ABEF0DF00850065E20
:101B50000950075A0B80D890093208320A2E98EFA4
:101B60000DF00BC006F00CC007F01200000E1A6E4C
:101B7000000E196E15501324066E16501420076EB1
:101B8000000E096E020E086E00EC0CF006C017F095
:101B900007C018F01750C008196E1850D8A0E82ACE
:101BA000A8081A6E0B0E00019F19A011D8A4DBEF34
:101BB0000DF0DDEF0DF0EDEF0DF0080EA11907E1CE
:101BC000070EA219D8A4E7EF0DF0E9EF0DF0EDEF45
:101BD0000DF01950A1271A50A223120080B6F3EF7E
:101BE0000DF0F7EF0DF00E6A0E2AF8EF0DF00E6A09
:101BF0000E500F6E106A000E126E000E116E0F5016
:101C00001010D8A406EF0EF008EF0EF020EF0EF043
:101C100080A60DEF0EF00FEF0EF020EF0EF09FC03C
:101C200006F0A0C007F00E0E096E100E086E23EC31
:101C300010F00001A1510624116EA2510720126E6E
:101C400011C00CF012C00DF0120080B62AEF0EF099
:101C50002EEF0EF00E6A0E2A2FEF0EF00E6A0E50C7
:101C60000F6E106A000E126E000E116E0F0410102F
:101C7000D8A43DEF0EF03FEF0EF057EF0EF080B618
:101C800044EF0EF046EF0EF057EF0EF09FC006F057
:101C9000A0C007F00E0E096E100E086E23EC10F0B7
:101CA0000001A1510624116EA2510720126E11C02D
:101CB0000CF012C00DF01200066E06A062EF0EF0DE
:101CC00064EF0EF067EF0EF07A8668EF0EF07A960A
:101CD00006A26DEF0EF06FEF0EF072EF0EF07A8449
:101CE00073EF0EF07A9406A478EF0EF07AEF0EF010
:101CF0007DEF0EF07D867EEF0EF07D9606A683EFDB
:101D00000EF085EF0EF088EF0EF07D8289EF0EF079
:101D10007D92A9EC10F01A0EE82EFED700D012002A
:101D2000030E0001A319A411D8A499EF0EF09BEFA4
:101D30000EF0A7EF0EF0070E53185410D8A4A3EF1F
:101D40000EF0A5EF0EF0A7EF0EF09F4BA02B0A0EA2
:101D5000A319A411D8A4AFEF0EF0B1EF0EF0BEEFAF
:101D60000EF0070E53185410D8A4B9EF0EF0BBEFC5
:101D70000EF0BEEF0EF09F07D8A0A0071200740E61
:101D80000001806F000E816F70C082F071C083F01F
:101D9000000E866F000E856F000E8C6F000E8B6F2D
:101DA000820E6A6F000E6B6F72C06CF073C06DF0C4
:101DB000800E6E6F000E6F6F10EC0FF000018551FA
:101DC0007025D96E86517121DA6E000EDF6E120019
:101DD000140EF66E210EF76E000EF86E01EE88F00E
:101DE00010EE18F00900F5CFEEFFE550E150FAE1F2
:101DF00001EE64F0240EEE6AE806FDE100EE99F0D3
:101E00000A0EEE6AE806FDE1526A516A506A559080
:101E10005592000EF86E0E0EF76E0001B3EF0CF047
:101E20006CC04CF06DC04DF024EF0FF06AC044F070
:101E30006BC045F04C0E466E000E476E6EC048F00B
:101E40006FC049F0FCEC09F04CC0F6FF4DC0F7FF45
:101E50000800F5500009D8A430EF0FF032EF0FF072
:101E600016EF0FF0000E00016B6F000E6A6F12008C
:101E7000000E156E000E146E49EF0FF013C006F041
:101E8000076A11C008F012C009F09BEC0BF0144A6D
:101E9000152A14500F24D96E15501020DA6EDF5019
:101EA000136E1350D8A457EF0FF059EF0FF03EEF19
:101EB0000FF01200000E0001A26F000EA16F000EC5
:101EC000A06F000E9F6F000E0101A56F010EA46FA1
:101ED000000EA36F010EA26F000E546E060E536E1D
:101EE000070EA16FE60EA06F000E0001A46F010E99
:101EF000A36F8086120019BE88EF0FF0195006E11B
:101F00001804D8B086EF0FF088EF0FF096EF0FF0BF
:101F100018C01AF019C01BF01A1E1B1E1A4A1B2AE1
:101F20001AC018F01BC019F09AEF0FF018C018F083
:101F300019C019F012000001A0BFA7EF0FF0A051C7
:101F400008E19F05D8A0A7EF0FF0A9EF0FF0B8EFB9
:101F50000FF0A0BFB7EF0FF0A05107E1050E9F5D96
:101F6000D8B0B5EF0FF0B7EF0FF0B8EF0FF08096E5
:101F700012000E0135A1BFEF0FF0C1EF0FF0D5EF4A
:101F80000FF080A6C6EF0FF0CAEF0FF0016A012A2A
:101F9000CBEF0FF0016A014601460146805001185F
:101FA000F70B0118806E0E01359155921100E4EF88
:101FB0000FF0010E076E09C0D9FF0AC0DAFFDF502B
:101FC0000BEC10F0094A0A2A09C0D9FF0AC0DAFF4F
:101FD000DF50D8A4EEEF0FF0F0EF0FF0D9EF0FF0D5
:101FE0001200096E09A0F7EF0FF0F9EF0FF0FEEF06
:101FF0000FF0000E076E800E0BEC10F009A203EF3D
:1020000010F005EF10F00AEF10F0000E076EC00E92
:102010000BEC10F01200086E07A011EF10F013EF98
:1020200010F016EF10F07B8C17EF10F07B9C083847
:102030000F0B5CEC0EF008505CEC0EF0A00E00D024
:10204000E82EFDD7120006500802F3CF0AF0F4CFB5
:102050000BF006500902F3500B2607500802F3500C
:102060000B260AC006F00BC007F01200879087927B
:102070008194869C8198819A8690829082927F90AA
:102080007F9279947E9C7998799A7E907A907A92D0
:102090001200868E0E01D251F80B0309D26FD35174
:1020A000F80B0509D36FD083D089D18396EC10F05B
:1020B0000E01D08F1200868E0E01D251F80B03094B
:1020C000D26FD351F80B0509D36FD083D089D1815A
:1020D00096EC10F00E01D08F1200D6501F0B400965
:1020E000D66ED688D650F00B0809D66ED5880B0E62
:1020F000D46EDB0ED36ED58E120081860E019287D0
:102100000F015899FC0E5817030E5F6F609460889A
:10211000608E12001F001C001F001E001F001E000A
:102120001F001F001E001F001E001F00F30E0E01E7
:10213000C617C691C751E00B1409C76FC68F1200AE
:102140000E012B81298B21811F9BF28AF28CF28E4A
:1021500012007B840A0EE82EFED700D07B9412007A
:0C216000809688967C8E849E12001200EF
:020000040020DA
:10000000FF0FFF0FFF0FFF0FFF0FFF0FFF0FFF0F80
:020000040030CA
:0C000000AAFFFFFF9FFFFFFFFFFFFFFFB5
:00000001FF
