:0400000023EF00F0FA
:1000080008820E0135A10BEF00F00DEF00F021EF93
:1000180000F080A612EF00F016EF00F0076A072A3A
:1000280017EF00F0076A074607460746805007188B
:10003800F70B0718806E0E0135910892110099EFA1
:0200480007F0BF
:100E00000000000000DCCFD1350000000000C0155C
:100E10003F6042A20D70A5EC363BAAB83F4F387632
:100E20003F3CAA38338CBEBF350072313F18723157
:100E30003F4CBB31330EEADDB555B38A38610B3612
:100E4000BBABAA2A3E42F1533E55326C3E05A38B02
:100E50003EABAAAA3EB76DDB3E9A99193F6042A20B
:100E60000DCAF249710000804B0000803F0000C0B5
:0F0E70003F00AAB83FC623F6B80040763F000007
:100E8000879087928194869C8198819A869082909F
:100E900082927F907F9279947E9C7998799A7E90C5
:100EA0007A907A921200808688967C9E849E40EC8E
:100EB00007F089EC07F077EC07F065EC07F0B2EC8F
:100EC00007F061EF07F023EF00F0868E0E01D2519C
:100ED000F80B0309D26FD351F80B0509D36FD083F8
:100EE000D089D181A8EC07F00E01D08F1200868E38
:100EF0000E01D251F80B0309D26FD351F80B05093B
:100F0000D36FD083D089D183A8EC07F00E01D08FA6
:100F10001200D6501F0B4009D66ED688D650F00B63
:100F20000809D66ED5880B0ED46EDB0ED36ED58E27
:100F30001200066A056A046A036A026A016A089076
:100F40000892000EF86E0E0EF76E000153EF07F0D8
:100F5000F30E0E01C617C691C751E00B1E09C76FED
:0E0F6000C68F12000E012B81F28CF28E120051
:020000040020DA
:10000000FF0FFF0FFF0FFF0FFF0FFF0FFF0FFF0F80
:020000040030CA
:0C000000AAFFFFFF9FFFFFFFFFFFFFFFB5
:00000001FF
