:0400000023EF00F0FA
:1000080028820E0135A10BEF00F00DEF00F021EF73
:1000180000F080A612EF00F016EF00F0016A012A46
:1000280017EF00F0016A01460146014680500118A9
:10003800F70B0118806E0E013591289211002AEFF6
:0200480008F0BE
:100E00000000000000DCCFD1350000000000C0155C
:100E10003F6042A20D70A5EC363BAAB83F4F387632
:100E20003F3CAA38338CBEBF350072313F18723157
:100E30003F4CBB31330EEADDB555B38A38610B3612
:100E4000BBABAA2A3E42F1533E55326C3E05A38B02
:100E50003EABAAAA3EB76DDB3E9A99193F6042A20B
:100E60000DCAF249710000804B0000803F0000C0B5
:0F0E70003F00AAB83FC623F6B80040763F000007
:100E8000000E196E010E186E000E1B6E000E1A6E0B
:100E900002501814046E03501914056E0450051006
:100EA000D8B455EF07F057EF07F066EF07F0D8908A
:100EB0001A34D96E1B34DA6E060ED926000EDA22E9
:100EC000010EDE6E000EDD6E73EF07F0D8901A345F
:100ED000D96E1B34DA6E060ED926000EDA22000E09
:100EE000DE6E000EDD6ED890183619361A4A1B2AAF
:100EF0001BBE84EF07F01B5009E1090E1A5CD8A055
:100F000084EF07F086EF07F048EF07F006B002D055
:100F10007F9001D07F8008B002D07F9201D07F8285
:100F20000AB002D0799401D079840CB002D07E9CB2
:100F300001D07E8C0EB002D0799801D0798810B0A3
:100F400002D0799A01D0798A12B002D07E9001D075
:100F50007E8014B002D07A9001D07A8016B002D090
:100F60007A9201D07A821200808688967C9E849E36
:100F7000000E1F6E000E1E6EE3EC07F01AEC08F078
:100F800008EC08F0F6EC07F059EC08F050EC08F02B
:100F900002C020F003C021F020282110D8A4D3EFF4
:100FA00007F0D5EF07F0C6EF07F01EC01CF01FC01A
:100FB0001DF039EC08F01CC01EF01DC01FF0C6EF7C
:100FC00007F023EF00F0879087928194869C8198A8
:100FD000819A8690829082927F907F9279947E9C73
:100FE0007998799A7E907A907A921200868E0E0184
:100FF000D251F80B0309D26FD351F80B0509D36F07
:10100000D083D089D18146EC08F00E01D08F120038
:10101000868E0E01D251F80B0309D26FD351F80B13
:101020000509D36FD083D089D18346EC08F00E0137
:10103000D08F1200D6501F0B4009D66ED688D650DE
:10104000F00B0809D66ED5880B0ED46EDB0ED36E6E
:10105000D58E1200276A266A256A246A236A226AC4
:1010600028902892000EF86E0E0EF76E0001B4EF75
:1010700007F01C4A1D2A1CC002F01DC003F040EC02
:1010800007F01CC01CF01DC01DF01200F30E0E0175
:10109000C617C691C751E00B1409C76FC68F12005F
:1010A000D350D4CF04F0056A04C002F005C003F0A9
:0E10B00012000E012B81F29AF28CF28E1200C9
:020000040020DA
:10000000FF0FFF0FFF0FFF0FFF0FFF0FFF0FFF0F80
:020000040030CA
:0C000000AAFFFFFF9FFFFFFFFFFFFFFFB5
:00000001FF
