:0400000050EF00F0CD
:060008005082D1EF09F067
:100018005080D8CF03F0E8CF04F0E0CF05F00E0110
:1000280033AB19EF00F01BEF00F022EF00F0444A69
:10003800452A090ED46EC30ED36E339B050E4418A1
:100048004510D8A42AEF00F02CEF00F03DEF00F0A7
:100058007CAE31EF00F035EF00F0026A022A36EF8D
:1000680000F0026A023202327C5002187F0B02183A
:100078007C6E050E42184310D8A445EF00F047EFF8
:1000880000F048EF00F0808605C0E0FF04C0E8FFFC
:0C00980003C0D8FF5090100094EF09F056
:100E00000000000000DCCFD1350000000000C0155C
:100E10003F6042A20D70A5EC363BAAB83F4F387632
:100E20003F3CAA38338CBEBF350072313F18723157
:100E30003F4CBB31330EEADDB555B38A38610B3612
:100E4000BBABAA2A3E42F1533E55326C3E05A38B02
:100E50003EABAAAA3EB76DDB3E9A99193F6042A20B
:100E60000DCAF249710000804B0000803F0000C0B5
:0F0E70003F00AAB83FC623F6B80040763F000007
:100E8000030E4614206E000E4714216E20502110D0
:100E9000D8A44DEF07F04FEF07F055EF07F0000E25
:100EA000256E1D0E246E59EF07F0000E256E1C0EE8
:100EB000246E44044510D8A460EF07F062EF07F0F9
:100EC0006EEF07F0424A432A42C006F043C007F0E3
:100ED000BCEC07F0000E456E000E446E180E421872
:100EE0004310D8A476EF07F078EF07F082EF07F011
:100EF0004C4A4D2A4A4A4B2A484A492A000E436E18
:100F0000000E426E070E4A184B10D8A48AEF07F065
:100F10008CEF07F090EF07F0000E4B6E000E4A6E5C
:100F2000D8904E34D96E4F34DA6E200ED926000E8A
:100F3000DA224850DE1807E14950DE18D8A4A3EFA2
:100F400007F0A5EF07F0ABEF07F0000E496E000EBB
:100F5000486E4E4A4F2A0D0E4E184F10D8A4B3EFCC
:100F600007F0B5EF07F0BBEF07F0000E4F6E000E75
:100F70004E6E464A472A1200000E1D6E010E1C6E70
:100F8000000E1F6E000E1E6E06501C14086E0750D9
:100F90001D14096E08500910D8B4D1EF07F0D3EF33
:100FA00007F0E2EF07F0D8901E34D96E1F34DA6EE6
:100FB0000A0ED926000EDA22010EDE6E000EDD6E5C
:100FC000EFEF07F0D8901E34D96E1F34DA6E0A0E98
:100FD000D926000EDA22000EDE6E000EDD6ED890ED
:100FE0001C361D361E4A1F2A1FBE00EF08F01F5078
:100FF00009E1090E1E5CD8A000EF08F002EF08F02E
:10100000C4EF07F00AB002D07F9001D07F800CB00F
:1010100002D07F9201D07F820EB002D0799401D0AD
:10102000798410B002D07E9C01D07E8C12B002D0A8
:10103000799801D0798814B002D0799A01D0798A50
:1010400016B002D07E9001D07E8018B002D07A9087
:1010500001D07A801AB002D07A9201D07A8212003E
:10106000000E0B6E09BE39EF08F037EF08F03FEFC6
:1010700008F0086C091ED8B0092A010E0B6E07BED5
:1010800046EF08F044EF08F04CEF08F0066C071E3E
:10109000D8B0072A010E0B1A000E0D6E000E0C6E52
:1010A00008500910D8B457EF08F059EF08F081EF55
:1010B00008F0010E0A6E61EF08F0D8900836093684
:1010C0000A2A09AE66EF08F068EF08F05DEF08F055
:1010D000D8900C360D360850065C09500758D8A039
:1010E00074EF08F076EF08F07BEF08F00850065E2A
:1010F0000950075A0C80D890093208320A2E68EF3E
:1011000008F00B50D8B487EF08F089EF08F08DEFA6
:1011100008F00C6C0D1ED8B00D2A0CC006F00DC0E6
:1011200007F01200000E1A6E000E196E15501324EF
:10113000066E16501420076E000E096E020E086E21
:1011400030EC08F006C017F007C018F01750C008C0
:10115000196E1850D8A0E82AA8081A6E0B0E42186B
:101160004310D8A4B6EF08F0B8EF08F0C8EF08F0C5
:10117000080E441807E1070E4518D8A4C2EF08F07E
:10118000C4EF08F0C8EF08F0195044261A50452261
:10119000120080B6CEEF08F0D2EF08F00E6A0E2AE9
:1011A000D3EF08F00E6A0E500F6E106A000E126E2A
:1011B000000E116E0F501010D8A4E1EF08F0E3EF0D
:1011C00008F0FAEF08F080A6E8EF08F0EAEF08F080
:1011D000FAEF08F042C006F043C007F00E0E096EA9
:1011E000100E086E0CEC0AF044500624116E4550A7
:1011F0000720126E11C00CF012C00DF0120080B664
:1012000004EF09F008EF09F00E6A0E2A09EF09F061
:101210000E6A0E500F6E106A000E126E000E116EE6
:101220000F041010D8A417EF09F019EF09F030EFF0
:1012300009F080B61EEF09F020EF09F030EF09F059
:1012400042C006F043C007F00E0E096E100E086E85
:101250000CEC0AF044500624116E45500720126E23
:1012600011C00CF012C00DF012008050000E436E41
:10127000000E426E92EC0AF01FEC0AF056EC0AF0F7
:1012800032EC0AF044EC0AF089EC0AF066EC0AF061
:10129000B3EC09F040EC07F0EFEC09F0FFEC08F0DC
:1012A000C9EC08F0FFEC08F00CC013F00DC014F00E
:1012B000C9EC08F00CC015F00DC016F092EC08F067
:1012C00066EC09F04AEF09F050EF00F0030E4E18FB
:1012D0004F10D8A46EEF09F070EF09F07CEF09F021
:1012E000070E4A184B10D8A478EF09F07AEF09F0EE
:1012F0007CEF09F0424A432A0A0E4E184F10D8A438
:1013000084EF09F086EF09F093EF09F0070E4A1811
:101310004B10D8A48EEF09F090EF09F093EF09F08D
:101320004206D8A043061200E60EF66E140EF76EC3
:10133000000EF86E00EE22F010EE18F00900F5CF66
:10134000EEFFE550E150FAE100EE3AF00C0EEE6AE5
:10135000E806FDE150905092000EF86E0E0EF76E0A
:10136000000135EF09F0000E456E000E446E000ED0
:10137000436E000E426E000E4D6E010E4C6E000E5E
:10138000496E010E486E000E4B6E060E4A6E070E39
:10139000476EE60E466E000E4F6E010E4E6E808654
:1013A00012000E0135A1D7EF09F0D9EF09F0EDEFEA
:1013B00009F080A6DEEF09F0E2EF09F0016A012AE8
:1013C000E3EF09F0016A0146014601468050011829
:1013D000F70B0118806E0E0135915092110043BE3B
:1013E000FAEF09F0435008E14204D8A0FAEF09F0FF
:1013F000FCEF09F00BEF0AF043BE0AEF0AF043508E
:1014000007E1050E425CD8B008EF0AF00AEF0AF0D7
:101410000BEF0AF08096120006500802F3CF0AF094
:10142000F4CF0BF006500902F3500B2607500802C8
:10143000F3500B260AC006F00BC007F0120087908D
:1014400087928194869C8198819A869082908292DC
:101450007F907F9279947E9C7998799A7E907A9009
:101460007A921200868E0E01D251F80B0309D26FC8
:10147000D351F80B0509D36FD083D089D1837FEC8A
:101480000AF00E01D08F1200868E0E01D251F80B99
:101490000309D26FD351F80B0509D36FD083D089DC
:1014A000D1817FEC0AF00E01D08F1200D6501F0BB5
:1014B0004009D66ED688D650F00B0809D66ED5886E
:1014C0000B0ED46EDB0ED36ED58E120081860E010C
:1014D00092870F015899FC0E5817030E5F6F6094A6
:1014E0006088608E12001F001C001F001E001F007D
:1014F0001E001F001F001E001F001E001F00F30E15
:101500000E01C617C691C751E00B1409C76FC68FED
:1015100012000E012B81298B21811F9BF28AF28CF4
:0E152000F28E1200809688967C8E849E1200B9
:020000040020DA
:10000000FF0FFF0FFF0FFF0FFF0FFF0FFF0FFF0F80
:020000040030CA
:0C000000AAFFFFFF9FFFFFFFFFFFFFFFB5
:00000001FF
