:0400000035EF00F0E8
:06000800518242EF0CF0F2
:100018005180D8CF0AF0E8CF0BF0E0CF0CF00E01FA
:1000280033AB19EF00F01BEF00F022EF00F04A4A63
:100038004B2A090ED46EC30ED36E339B050E4D1892
:100048004E10D8A42AEF00F02CEF00F02DEF00F0AE
:1000580080860CC0E0FF0BC0E8FF0AC0D8FF5190B3
:06006800100055EF0EF040
:100E000000256420256420256420256420256400B5
:010E100000E1
:100E12002AC066F02BC067F02CC068F02DC069F0C4
:100E22002EC06AF02FC06BF030C06CF031C06DF094
:100E320000016DBF1FEF07F022EF07F0010E23EF55
:100E420007F0000E6E6F6E51D8B42AEF07F02CEF48
:100E520007F03CEF07F06D1F6C1F6B1F6A1F691FC5
:100E6200681F671F666D000E6723682369236A2364
:100E72006B236C236D23010167BF4AEF07F06751B3
:100E820006E16605D8B048EF07F04AEF07F051EFE8
:100E920007F0000E0001636F010E626F55EF07F05D
:100EA20066C162F067C163F064C164F065C165F058
:100EB20000016E51D8B460EF07F062EF07F079EFEE
:100EC20007F06407D8A065076E51D8A46BEF07F04E
:100ED2006DEF07F073EF07F0000E616F2B0E606F7E
:100EE20077EF07F0000E616F2D0E606F60C06EF03D
:100EF200000E706F1F0E6F6F000E0101916FFFEFFA
:100F020007F06F07D8A07007720E6F25D96E010E19
:100F12007021DA6E66C00DF067C00EF068C00FF087
:100F220069C010F06AC011F06BC012F06CC013F00F
:100F32006DC014F00A0E156E000E166E000E176EBE
:100F4200000E186E000E196E000E1A6E000E1B6E49
:100F5200000E1C6E11EC09F00DC032F00EC033F021
:100F62000FC034F010C035F011C036F012C037F0A7
:100F720013C038F014C039F032C01FF033C020F073
:100F8200F9EC0EF01F50300FDF6E00016207D8A09F
:100F920063076407D8A0650766C00DF067C00EF04E
:100FA20068C00FF069C010F06AC011F06BC012F097
:100FB2006CC013F06DC014F00A0E156E000E166EA2
:100FC200000E176E000E186E000E196E000E1A6ECD
:100FD200000E1B6E000E1C6E4DEC08F00DC066F08C
:100FE2000EC067F00FC068F010C069F011C06AF05F
:100FF20012C06BF013C06CF014C06DF0000170BF32
:101002000BEF08F0705108E16F05D8A00BEF08F064
:101012000DEF08F029EF08F06651671168116911A8
:101022006A116B116C116D11D8A41AEF08F01CEF44
:1010320008F082EF07F063BF29EF08F0635106E181
:101042006205D8B027EF08F029EF08F082EF07F029
:101052006E51D8B42FEF08F031EF08F03CEF08F0F2
:101062006F07D8A07007720E6F25D96E010E70211E
:10107200DA6E6EC0DFFF28C01DF029C01EF0720EAE
:101082006F251F6E010E7021206E64C021F065C0B5
:1010920022F0B2EC0DF01200000E1E6E1CBE56EFD6
:1010A20008F054EF08F068EF08F01C1E1B1E1A1E11
:1010B200191E181E171E161E156C000E1622172258
:1010C200182219221A221B221C22010E1E6E14BE85
:1010D2006FEF08F06DEF08F081EF08F0141E131E99
:1010E200121E111E101E0F1E0E1E0D6C000E0E2261
:1010F2000F2210221122122213221422010E1E1A72
:1011020020EE1FF0070EDE6AE806FDE2155016100B
:101112001710181019101A101B101C10D8B494EFC5
:1011220008F096EF08F0E8EF08F0010E1D6EA4EF4C
:1011320008F0D890153616361736183619361A367C
:101142001B361C361D2A1CAEA9EF08F0ABEF08F0C7
:101152009AEF08F0D8901F362036213622362336F1
:1011620024362536263615500D5C16500E5817506B
:101172000F5818501058195011581A5012581B5025
:1011820013581C501458D8A0C9EF08F0CBEF08F040
:10119200DCEF08F015500D5E16500E5A17500F5A1C
:1011A2001850105A1950115A1A50125A1B50135AE9
:1011B2001C50145A1F80D8901C321B321A3219321A
:1011C20018321732163215321D2EABEF08F01E50B0
:1011D200D8B4EEEF08F0F0EF08F000EF09F0261EA9
:1011E200251E241E231E221E211E201E1F6C000EE1
:1011F20020222122222223222422252226221FC02B
:101202000DF020C00EF021C00FF022C010F023C05C
:1012120011F024C012F025C013F026C014F0120001
:10122200000E1E6E14BE1AEF09F018EF09F02CEF33
:1012320009F0141E131E121E111E101E0F1E0E1E6A
:101242000D6C000E0E220F221022112212221322E6
:101252001422010E1E6E1CBE33EF09F031EF09F0AD
:1012620043EF09F01C1E1B1E1A1E191E181E171E04
:10127200161E156C000E16221722182219221A2287
:101282001B221C22155016101710181019101A10B4
:101292001B101C10D8B450EF09F052EF09F09AEF6E
:1012A20009F0010E1D6E60EF09F0D8901536163662
:1012B2001736183619361A361B361C361D2A1CAE3E
:1012C20065EF09F067EF09F056EF09F015500D5C74
:1012D20016500E5817500F581850105819501158D0
:1012E2001A5012581B5013581C501458D8A07CEF97
:1012F20009F07EEF09F08EEF09F015500D5E1650E1
:101302000E5A17500F5A1850105A1950115A1A5093
:10131200125A1B50135A1C50145AD8901C321B32AA
:101322001A32193218321732163215321D2E67EF61
:1013320009F01E50D8B4A0EF09F0A2EF09F0B2EF05
:1013420009F0141E131E121E111E101E0F1E0E1E59
:101352000D6C000E0E220F221022112212221322D5
:1013620014220DC00DF00EC00EF00FC00FF010C011
:1013720010F011C011F012C012F013C013F014C01B
:1013820014F012003CC0D9FF3DC0DAFFDECFF6FFF9
:10139200DDCFF7FF0800F550250AD8A4D3EF09F0F6
:1013A200D5EF09F056EF0AF03CC0D9FF3DC0DAFF95
:1013B200DE2A000EDD22000E0101656F000E646F51
:1013C20064C14CF0666967693CC0D9FF3DC0DAFF71
:1013D200DECF79F0DDCF7AF079C0F6FF7AC0F7FF81
:1013E2000800F550640AD8B4F9EF09F0FBEF09F0F0
:1013F20009EF0AF079C0F6FF7AC0F7FF0800F5504E
:10140200690AD8A407EF0AF009EF0AF04DEF0AF0D3
:101412003EC0D9FF3FC0DAFFDFCF40F0020EDE262A
:10142200DFCF41F0000EDD2240C0D9FF41C0DAFF1C
:10143200DECF71F0DDCF72F00001000E72BFFF0E41
:10144200736F746F756F766F776F786F010E792592
:10145200406E000E7A21416E3CC0D9FF3DC0DAFFDA
:1014620040C0DEFF41C0DDFF3AC028F03BC029F09A
:1014720071C02AF072C02BF073C02CF074C02DF032
:1014820075C02EF076C02FF077C030F078C031F002
:1014920009EC07F06AEF0AF03CC0D9FF3DC0DAFF61
:1014A200DE2A000EDD226AEF0AF03CC0D9FF3DC001
:1014B200DAFFDECFF6FFDDCFF7FF0800F5500D6E45
:1014C2000E6A3AC00FF03BC010F07BEC0BF04DEF10
:1014D2000AF01200030E0101AA15276E000EAB15C9
:1014E200286E27502810D8A479EF0AF07BEF0AF073
:1014F2007FEF0AF0000E956F1D0E946F030EAA1572
:10150200276E000EAB15286E27502810D8B48CEF2A
:101512000AF08EEF0AF092EF0AF0000E956F1C0EA1
:10152200946F70514A1807E171514B18D8A49CEF7F
:101532000AF09EEF0AF0AAEF0AF04D4A4E2A4DC079
:101542000DF04EC00EF007EC0BF0000E4B6E000ECD
:101552004A6E01016E514D1807E16F514E18D8A421
:10156200B5EF0AF0B7EF0AF0C5EF0AF0B04BB12BB6
:10157200AE4BAF2BAC4BAD2B000E4E6E000E4D6E34
:10158200000E506E010E4F6E080EAE19AF11D8A4A8
:10159200CDEF0AF0CFEF0AF0D3EF0AF0000EAF6FF3
:1015A200010EAE6FD890B235D96EB335DA6E900EA9
:1015B200D926010EDA22DECF27F0DDCF28F0010E88
:1015C2002726000E2822AC51271807E1AD51281812
:1015D200D8A4EEEF0AF0F0EF0AF0F6EF0AF0000EF0
:1015E200AD6F010EAC6FB24BB32B0D0EB219B3112E
:1015F200D8A4FEEF0AF000EF0BF006EF0BF0000E9E
:10160200B36F010EB26FAA4BAB2B1200000E246E09
:10161200010E236E000E266E000E256E0D50231451
:101622000F6E0E502414106E0F501010D8B41CEF11
:101632000BF01EEF0BF02DEF0BF0D8902534D96E86
:101642002634DA6E110ED926000EDA22010EDE6E73
:10165200000EDD6E3AEF0BF0D8902534D96E2634A9
:10166200DA6E110ED926000EDA22000EDE6E000EA0
:10167200DD6ED89023362436254A262A26BE4BEF25
:101682000BF0265009E1090E255CD8A04BEF0BF0B8
:101692004DEF0BF00FEF0BF011B002D07F9001D0A5
:1016A2007F8013B002D07F9201D07F8215B002D02A
:1016B200799401D0798417B002D07E9C01D07E8CBF
:1016C20019B002D0799801D079881BB002D0799AEA
:1016D20001D0798A1DB002D07E9001D07E801FB0E9
:1016E20002D07A9001D07A8021B002D07A9201D0D1
:1016F2007A8212000F501010D8B482EF0BF084EFF0
:101702000BF08DEF0BF00F501010D8A48BEF0BF0F5
:101712008DEF0BF092EF0BF00D503CEC10F0DFEF81
:101722000BF020EE09F00F50D9261050DA22DE50CD
:10173200DE10D8B49FEF0BF0A1EF0BF0BCEF0BF073
:1017420020EE09F00F50D9261050DA2210EE03F0E5
:101752000F50E1261050E222DE50E65CE650800A8D
:10176200156EDE50800A1558D8B0BAEF0BF0BCEFF8
:101772000BF0DFEF0BF020EE03F00F50D9261050E4
:10178200DA22DECF11F0DDCF12F00FC0D9FF10C088
:10179200DAFFDECF13F0DDCF14F011501324D96E2F
:1017A20012501420DA6E0DC0DFFF20EE03F00F504E
:1017B200D9261050DA22DE2A000EDD221200000E97
:1017C200126E10BEE9EF0BF0E7EF0BF0EFEF0BF04C
:1017D2000F6C101ED8B0102A010E126E0EBEF6EF5C
:1017E2000BF0F4EF0BF0FCEF0BF00D6C0E1ED8B00B
:1017F2000E2A010E121A000E146E000E136E0F50F6
:101802001010D8B407EF0CF009EF0CF031EF0CF028
:10181200010E116E11EF0CF0D8900F361036112A0E
:1018220010AE16EF0CF018EF0CF00DEF0CF0D89094
:10183200133614360F500D5C10500E58D8A024EFFA
:101842000CF026EF0CF02BEF0CF00F500D5E105049
:101852000E5A1380D89010320F32112E18EF0CF05E
:101862001250D8B437EF0CF039EF0CF03DEF0CF01A
:10187200136C141ED8B0142A13C00DF014C00EF04D
:101882001200F3CF08F0F4CF09F00E0135A14CEFAE
:101892000CF04EEF0CF090EF0CF080A653EF0CF032
:1018A20057EF0CF0076A072A58EF0CF0076A074651
:1018B2000746074680500718F70B0718806E80B658
:1018C20065EF0CF067EF0CF077EF0CF04DC001F014
:1018D2004EC002F0000E046E0A0E036EB4EC0FF05E
:1018E2004A500124486E4B500220496E80A67CEF7C
:1018F2000CF07EEF0CF08EEF0CF04DC001F04EC0FC
:1019020002F0000E046E0A0E036EB4EC0FF04A50A1
:101912000124466E4B500220476E0E01359109C0DC
:10192200F4FF08C0F3FF519211008394839C8296C6
:101932008294859285967A967A947D927D967B940E
:101942007B9C040E116E400E106E260EE82EFED702
:10195200102EFCD7112EFAD700D0030EEFEC0DF0AB
:10196200D50EE82EFED700F0000E0E6E2C0E89EC7E
:101972000FF0D50EE82EFED700F0000E0E6E2C0EE4
:1019820089EC0FF0D50EE82EFED700F0000E0E6E99
:101992000C0E89EC0FF0D50EE82EFED700F0000EEB
:1019A2000E6E010E89EC0FF0200E106ECA0EE82E9C
:1019B200FED7102EFCD7000E0E6E070E89EC0FF02C
:1019C200000E0E6E0C0E89EC0FF0120038EC10F0C7
:1019D200A1EC0FF0EBEC0FF0C7EC0FF0D9EC0FF02D
:1019E20028EC10F0FBEC0FF019EC0FF096EC0CF079
:1019F20014EC10F0010E6FEC0FF06BEC0AF038EC07
:101A02000FF048C015F049C016F046C017F047C0A5
:101A120018F02DEC0DF070EC0DF0000E00019C6F33
:101A2200010E9D6F46C09EF047C09FF048C0A0F0D7
:101A320049C0A1F04FC0A2F050C0A3F06AC1A4F007
:101A42006BC1A5F04AC0A6F04BC0A7F023EC0EF084
:101A5200FBEF0CF035EF00F0FF0E1C6EFE0E1B6E5E
:101A6200175015240D6E185016200E6E000E106EB3
:101A7200020E0F6EE0EC0BF00DC019F00EC01AF062
:101A8200170E4D184E10D8A449EF0DF04BEF0DF084
:101A920066EF0DF0050E4A184B10D8A453EF0DF067
:101AA20055EF0DF066EF0DF04F045010D8A45CEF27
:101AB2000DF05EEF0DF066EF0DF0FE0E4A26FF0E02
:101AC2004B22000E506E000E4F6E19C068F11AC004
:101AD20069F1FF0E01016B6FFE0E6A6F1200030EB9
:101AE2000101B219B311D8A479EF0DF07BEF0DF01B
:101AF20090EF0DF0070EAE19AF11D8A483EF0DF0E1
:101B020085EF0DF090EF0DF04D044E10D8A48CEF40
:101B12000DF08EEF0DF090EF0DF04D4A4E2A0A0EA9
:101B2200B219B311D8A498EF0DF09AEF0DF0B1EFFE
:101B32000DF0070EAE19AF11D8A4A2EF0DF0A4EF6D
:101B42000DF0B1EF0DF0020E4D184E10D8A4ACEF0F
:101B52000DF0AEEF0DF0B1EF0DF04D06D8A04E0630
:101B6200120022BEB7EF0DF0B9EF0DF0BFEF0DF08E
:101B720021C026F022C027F0C3EF0DF0000E276E21
:101B8200000E266E000E256E000E246ED5EF0DF0AF
:101B9200000E0E6E200E0D6E1DC00FF01EC010F056
:101BA2007BEC0BF0244A252A2650245C2550800A1F
:101BB200236E2750800A2358D8A0E2EF0DF0E4EFFD
:101BC2000DF0C9EF0DF01FC016F020C017F01DC0B8
:101BD20018F01EC019F0D7EC0EF012000D6E0DA019
:101BE200F5EF0DF0F7EF0DF0FAEF0DF07A86FBEF5F
:101BF2000DF07A960DA200EF0EF002EF0EF005EF57
:101C02000EF07A8406EF0EF07A940DA40BEF0EF02C
:101C12000DEF0EF010EF0EF07D8611EF0EF07D96B7
:101C22000DA616EF0EF018EF0EF01BEF0EF07D82F0
:101C32001CEF0EF07D9231EC10F01A0EE82EFED75A
:101C420000D012009CC081F09DC082F0010E000104
:101C5200836F0E0E846F9EC085F09FC086F0A0C079
:101C620087F0A1C088F0A2C089F0A3C08AF0A4C006
:101C72008BF0A5C08CF0A6C08DF0A7C08EF086ECCC
:101C82000EF09CC010F09DC011F055EC0FF0520EFA
:101C9200456E2B0E446E000EE82EFED7442EFCD766
:101CA200452EFAD700D01200100EF66E200EF76EF7
:101CB200000EF86E01EE92F010EE18F00900F5CF6A
:101CC200EEFFE550E150FAE1760EF66E200EF76E69
:101CD200000EF86E0900F5CF4FF00900F5CF50F075
:101CE20001EE64F02E0EEE6AE806FDE100EE46F02B
:101CF200070EEE6AE806FDE151905192000EF86E71
:101D02000E0EF76E0001E7EF0CF0850E00018F6FEB
:101D1200000E906F81C091F082C092F0000E956F1C
:101D2200000E946F000E9B6F000E9A6F910E7B6FE8
:101D3200000E7C6F83C07DF084C07EF08F0E7F6FBB
:101D4200000E806FAFEC0EF0000194518125D96E28
:101D520095518221DA6E000EDF6E12007DC042F0D4
:101D62007EC043F0C3EF0EF07BC03AF07CC03BF084
:101D7200420E3C6E000E3D6E7FC03EF080C03FF0D2
:101D8200C3EC09F042C0F6FF43C0F7FF0800F5506C
:101D92000009D8A4CFEF0EF0D1EF0EF0B5EF0EF0A0
:101DA200000E00017C6F000E7B6F1200000E1C6E95
:101DB200000E1B6EE8EF0EF01AC00DF00E6A18C08E
:101DC2000FF019C010F07BEC0BF01B4A1C2A1B50C1
:101DD2001624D96E1C501720DA6EDF501A6E1A5074
:101DE200D8A4F6EF0EF0F8EF0EF0DDEF0EF01200D1
:101DF20020BE06EF0FF0205006E11F04D8B004EF1A
:101E02000FF006EF0FF014EF0FF01FC021F020C00B
:101E120022F0211E221E214A222A21C01FF022C0A6
:101E220020F018EF0FF01FC01FF020C020F01200AA
:101E3200000E4B6E000E4A6E000E4E6E170E4D6E69
:101E4200000E0101B16F010EB06F000EAD6F010EF9
:101E5200AC6F000EAF6F010EAE6F070EAB6FE60EEA
:101E6200AA6F000EB36F010EB26F808612004EBED3
:101E720043EF0FF04E5008E14D04D8A043EF0FF0AE
:101E820045EF0FF054EF0FF04EBE53EF0FF04E50F0
:101E920007E1050E4D5CD8B051EF0FF053EF0FF094
:101EA20054EF0FF08096120062EF0FF0010E0E6EEB
:101EB20010C0D9FF11C0DAFFDF5089EC0FF0104AD1
:101EC200112A10C0D9FF11C0DAFFDF50D8A46CEF7D
:101ED2000FF06EEF0FF057EF0FF01200106E10A020
:101EE20075EF0FF077EF0FF07CEF0FF0000E0E6E34
:101EF200800E89EC0FF010A281EF0FF083EF0FF04C
:101F020088EF0FF0000E0E6EC00E89EC0FF012007B
:101F12000F6E0EA08FEF0FF091EF0FF094EF0FF016
:101F22007B8C95EF0FF07B9C0F380F0BEFEC0DF0D5
:101F32000F50EFEC0DF0A00E00D0E82EFDD71200EE
:101F4200879087928194869C8198819A86908290CC
:101F520082927F907F9279947E9C7998799A7E90F2
:101F62007A907A92120001500302F3CF05F0F4CF77
:101F720006F001500402F350062602500302F35009
:101F8200062605C001F006C002F01200868E0E0180
:101F9200D251F80B0309D26FD351F80B0509D36F55
:101FA200D083D089D1831EEC10F00E01D08F1200A5
:101FB200868E0E01D251F80B0309D26FD351F80B62
:101FC2000509D36FD083D089D1811EEC10F00E01A8
:101FD200D08F1200D6501F0B4009D66ED688D6502D
:101FE200F00B0809D66ED5880B0ED46EDB0ED36EBD
:101FF200D58E120081860E0192870F015899FC0E30
:102002005817030E5F6F60946088608E12001F0085
:102012001C001F001E001F001E001F001F001E00CC
:102022001F001E001F00000E0101716F0A0E706F6B
:10203200000E6F6F180E6E6F1200F30E0E01C617B0
:10204200C691C751E00B1409C76FC68F12000E016B
:102052002B81298B21811F9BF28AF28CF28E120036
:102062007B840A0EE82EFED700D07B941200809665
:08207200889612000100120023
:020000040020DA
:10000000FF0FFF0FFF0FFF0FFF0FFF0FFF0FFF0F80
:020000040030CA
:0C000000AAFFFFFF9FFFFFFFFFFFFFFFB5
:00000001FF
