:0400000050EF00F0CD
:06000800568213EF11F017
:100018005680D8CF03F0E8CF04F0E0CF05F00E010A
:1000280033AB19EF00F01BEF00F022EF00F0534A5A
:10003800542A090ED46EC30ED36E339B050E531883
:100048005410D8A42AEF00F02CEF00F03DEF00F098
:100058007CAE31EF00F035EF00F0026A022A36EF8D
:1000680000F0026A023202327C5002187F0B02183A
:100078007C6E050E51185210D8A445EF00F047EFDA
:1000880000F048EF00F0808605C0E0FF04C0E8FFFC
:0C00980003C0D8FF5690100068EF10F075
:100E00000000000000DCCFD1350000000000C0155C
:100E10003F6042A20D70A5EC363BAAB83F4F387632
:100E20003F3CAA38338CBEBF350072313F18723157
:100E30003F4CBB31330EEADDB555B38A38610B3612
:100E4000BBABAA2A3E42F1533E55326C3E05A38B02
:100E50003EABAAAA3EB76DDB3E9A99193F6042A20B
:100E60000DCAF249710000804B0000803F0000C0B5
:100E70003F00AAB83FC623F6B80040763F25642F4E
:100E8000253032642F253033640025643A25303212
:100E9000643A25303364000046C0D9FF47C0DAFF0A
:100EA000DECFF6FFDDCFF7FF000EF86E0800F5503D
:100EB000250AD8A45EEF07F060EF07F092EF08F084
:100EC00046C0D9FF47C0DAFFDE2A000EDD22000E41
:100ED0000001986F000E976F97C055F099699A6955
:100EE000000E696F000E686FA2EF07F0558246C0D2
:100EF000D9FF47C0DAFFDE2A000EDD22A2EF07F09D
:100F0000000E696F010E686FA2EF07F046C0D9FFAF
:100F100047C0DAFFDECFF6FFDDCFF7FF000EF86E39
:100F20000800F5504A6E4B6A4B50000AD8B49BEF4C
:100F300007F080EF07F04A50300AD8B476EF07F098
:100F400080EF07F068516911D8B4A9EF07F0ABEF53
:100F500007F086EF07F046C0D9FF47C0DAFFDECFC3
:100F6000F6FFDDCFF7FF000EF86E0800F5502A0AF5
:100F7000D8A4BDEF07F0BFEF07F0E8EF07F046C0D9
:100F8000D9FF47C0DAFFDE2A000EDD2248C0D9FFB4
:100F900049C0DAFFDFCF4AF0020EDE26DFCF4BF08A
:100FA000000EDD224AC0D9FF4BC0DAFFDECF97F03A
:100FB000DDCF98F098BFE1EF07F0DFEF07F01DEF0E
:100FC00008F05580976D981FD8B0982B1DEF08F04A
:100FD00046C0D9FF47C0DAFFDECF0CF0DDCF0DF001
:100FE0007AEC0BF00CC097F00DC098F0FFEF07F013
:100FF00046C0D9FF47C0DAFFDE2A000EDD2246C018
:10100000D9FF47C0DAFFDECFF6FFDDCFF7FF000ED6
:10101000F86E0800F5CF4AF0D00E4A244B6E4C6AA9
:10102000FF0E4C224C5009E10A0E4B5CD8A01BEF7E
:1010300008F01DEF08F0F8EF07F046C0D9FF47C0F1
:10104000DAFFDECF6AF0DDCF6BF06AC0F6FF6BC06F
:10105000F7FF000EF86E0800F550640AD8B433EFBD
:1010600008F035EF08F045EF08F06AC0F6FF6BC0F6
:10107000F7FF000EF86E0800F550690AD8A443EF98
:1010800008F045EF08F089EF08F048C0D9FF49C0E3
:10109000DAFFDFCF4AF0020EDE26DFCF4BF0000E84
:1010A000DD224AC0D9FF4BC0DAFFDECF60F0DDCFD2
:1010B00061F00001000E61BFFF0E626F636F646F2D
:1010C000656F666F676F010E6A254A6E000E6B21B1
:1010D0004B6E46C0D9FF47C0DAFF4AC0DEFF4BC0A7
:1010E000DDFF44C021F045C022F060C023F061C0A4
:1010F00024F062C025F063C026F064C027F065C00C
:1011000028F066C029F067C02AF0A9EC08F0A8EF23
:1011100008F046C0D9FF47C0DAFFDE2A000EDD2204
:10112000A8EF08F046C0D9FF47C0DAFFDECFF6FFD0
:10113000DDCFF7FF000EF86E0800F550066E076A67
:1011400044C008F045C009F023EC0DF089EF08F029
:10115000120023C039F024C03AF025C03BF026C06D
:101160003CF027C03DF028C03EF029C03FF02AC027
:1011700040F040BEBEEF08F0C1EF08F0010EC2EF34
:1011800008F0000E416E4150D8B4C9EF08F0CBEF23
:1011900008F0DBEF08F0401E3F1E3E1E3D1E3C1EC9
:1011A0003B1E3A1E396C000E3A223B223C223D2265
:1011B0003E223F22402200019ABFE1EF08F0E3EF18
:1011C00008F0E4EF08F055929ABFF1EF08F09A5159
:1011D00006E19905D8B0EFEF08F0F1EF08F0F7EF6E
:1011E00008F0000E366E010E356EFBEF08F099C068
:1011F00035F09AC036F097C037F098C038F04150BB
:10120000D8B405EF09F007EF09F01EEF09F0370633
:10121000D8A038064150D8A410EF09F012EF09F019
:1012200018EF09F0000E346E2B0E336E1CEF09F030
:10123000000E346E2D0E336E33C041F0000E436E3F
:101240001F0E426E000E0101836FA3EF09F04206EC
:10125000D8A04306640E4224D96E010E4320DA6EF4
:1012600039C006F03AC007F03BC008F03CC009F0B6
:101270003DC00AF03EC00BF03FC00CF040C00DF086
:101280000A0E0E6E000E0F6E000E106E000E116E26
:10129000000E126E000E136E000E146E000E156E10
:1012A000C8EC0AF006C02BF007C02CF008C02DF0E7
:1012B00009C02EF00AC02FF00BC030F00CC031F086
:1012C0000DC032F02BC018F02CC019F0F3EC10F068
:1012D0001850300FDF6E3506D8A036063706D8A076
:1012E000380639C006F03AC007F03BC008F03CC0F1
:1012F00009F03DC00AF03EC00BF03FC00CF040C00A
:101300000DF00A0E0E6E000E0F6E000E106E000E27
:10131000116E000E126E000E136E000E146E000E93
:10132000156E04EC0AF006C039F007C03AF008C0A8
:101330003BF009C03CF00AC03DF00BC03EF00CC0D1
:101340003FF00DC040F043BEAEEF09F0435008E15E
:101350004204D8A0AEEF09F0B0EF09F0E0EF09F0D9
:1013600039503A103B103C103D103E103F104010D9
:10137000D8A4BDEF09F0BFEF09F027EF09F036BEA2
:10138000CCEF09F0365006E13504D8B0CAEF09F0C9
:10139000CCEF09F027EF09F038BED7EF09F038504D
:1013A00008E13704D8A0D7EF09F0D9EF09F0E0EF52
:1013B00009F055B2DEEF09F0E0EF09F027EF09F090
:1013C0004150D8B4E6EF09F0E8EF09F0F3EF09F087
:1013D0004206D8A04306640E4224D96E010E432073
:1013E000DA6E41C0DFFF21C016F022C017F0640E94
:1013F0004224186E010E4320196E37C01AF038C00F
:101400001BF0EAEC0DF01200000E176E15BE0DEF8A
:101410000AF00BEF0AF01FEF0AF0151E141E131E40
:10142000121E111E101E0F1E0E6C000E0F22102217
:1014300011221222132214221522010E176E0DBE44
:1014400026EF0AF024EF0AF038EF0AF00D1E0C1E0A
:101450000B1E0A1E091E081E071E066C000E072220
:10146000082209220A220B220C220D22010E171A31
:1014700020EE18F0070EDE6AE806FDE20E500F10AF
:10148000101011101210131014101510D8B44BEFC7
:101490000AF04DEF0AF09FEF0AF0010E166E5BEFB7
:1014A0000AF0D8900E360F36103611361236133633
:1014B00014361536162A15AE60EF0AF062EF0AF000
:1014C00051EF0AF0D890183619361A361B361C36EA
:1014D0001D361E361F360E50065C0F500758105032
:1014E00008581150095812500A5813500B581450EC
:1014F0000C5815500D58D8A080EF0AF082EF0AF072
:1015000093EF0AF00E50065E0F50075A1050085A1B
:101510001150095A12500A5A13500B5A14500C5AAF
:1015200015500D5A1880D8901532143213321232D9
:10153000113210320F320E32162E62EF0AF01750AF
:10154000D8B4A5EF0AF0A7EF0AF0B7EF0AF01F1E14
:101550001E1E1D1E1C1E1B1E1A1E191E186C000EA0
:1015600019221A221B221C221D221E221F2218C0F1
:1015700006F019C007F01AC008F01BC009F01CC023
:101580000AF01DC00BF01EC00CF01FC00DF01200C1
:10159000000E176E0DBED1EF0AF0CFEF0AF0E3EFA9
:1015A0000AF00D1E0C1E0B1E0A1E091E081E071E29
:1015B000066C000E0722082209220A220B220C22A6
:1015C0000D22010E176E15BEEAEF0AF0E8EF0AF0E1
:1015D000FAEF0AF0151E141E131E121E111E101E05
:1015E0000F1E0E6C000E0F22102211221222132247
:1015F000142215220E500F1010101110121013107B
:1016000014101510D8B407EF0BF009EF0BF051EFE1
:101610000BF0010E166E17EF0BF0D8900E360F364A
:10162000103611361236133614361536162A15AE04
:101630001CEF0BF01EEF0BF00DEF0BF00E50065CE5
:101640000F500758105008581150095812500A5896
:1016500013500B5814500C5815500D58D8A033EF98
:101660000BF035EF0BF045EF0BF00E50065E0F5010
:10167000075A1050085A1150095A12500A5A13505A
:101680000B5A14500C5A15500D5AD890153214326A
:1016900013321232113210320F320E32162E1EEF6A
:1016A0000BF01750D8B457EF0BF059EF0BF069EF70
:1016B0000BF00D1E0C1E0B1E0A1E091E081E071E17
:1016C000066C000E0722082209220A220B220C2295
:1016D0000D2206C006F007C007F008C008F009C0D8
:1016E00009F00AC00AF00BC00BF00CC00CF00DC0E2
:1016F0000DF01200000E146E000E136E000E126E2E
:10170000000E116E86EF0BF00C4A0D2A0CC0F6FF8E
:101710000DC0F7FF000EF86E0800F550200AD8B48F
:1017200094EF0BF096EF0BF084EF0BF00CC0F6FF8C
:101730000DC0F7FF000EF86E0800F5CF0EF0F70EA3
:101740000E240F6E106AFF0E1022105009E1050ED4
:101750000F5CD8A0AEEF0BF0B0EF0BF084EF0BF006
:10176000BAEF0BF0000E126E010E116E0C4A0D2A2C
:10177000F3EF0BF00CC0F6FF0DC0F7FF000EF86E94
:101780000800F5500E6E0F6A0F50000AD8B4CBEF68
:101790000BF0F3EF0BF00E502B0AD8B4B6EF0BF0B2
:1017A000060AD8B4B2EF0BF0F3EF0BF013C006F05B
:1017B00014C007F0000E096E0A0E086EB0EC11F0AE
:1017C0000CC0F6FF0DC0F7FF000EF86E0800F550D4
:1017D000065E000E075A300E0624136E000E072018
:1017E000146EB6EF0BF00CC0F6FF0DC0F7FF000E45
:1017F000F86E0800F5CF0EF0D00E0E240F6E106AB2
:10180000FF0E1022105009E10A0E0F5CD8A00BEF5A
:101810000CF00DEF0CF0D6EF0BF011501210D8A415
:1018200014EF0CF016EF0CF024EF0CF013C00EF0D8
:1018300014C00FF00E1E0F1E0E4A0F2A0EC00CF021
:101840000FC00DF028EF0CF013C00CF014C00DF019
:101850001200030E00019D15206E000E9E15216ED4
:1018600020502110D8A437EF0CF039EF0CF040EFE6
:101870000CF0000E0101876F1D0E866F45EF0CF016
:10188000000E0101876F1C0E866F53045410D8A4FC
:101890004CEF0CF04EEF0CF05AEF0CF0514A522A7C
:1018A00051C006F052C007F0AFEC0CF0000E546EC1
:1018B000000E536E180E51185210D8A462EF0CF09F
:1018C00064EF0CF071EF0CF001019E4B9F2B0001B7
:1018D0009F4BA02B01019C4B9D2B000E526E000EC6
:1018E000516E070E00019F19A011D8A47AEF0CF0D9
:1018F0007CEF0CF080EF0CF0000EA06F000E9F6FDD
:10190000D890A135D96EA235DA6E820ED926010E95
:10191000DA2201019C51DE1807E19D51DE18D8A49E
:1019200094EF0CF096EF0CF09DEF0CF0000E9D6F15
:10193000000E9C6F0001A14BA22B0D0E0001A119FE
:10194000A211D8A4A6EF0CF0A8EF0CF0AEEF0CF0AB
:10195000000EA26F000EA16F9D4B9E2B1200000E79
:101960001D6E010E1C6E000E1F6E000E1E6E0650C8
:101970001C14086E07501D14096E08500910D8B4C5
:10198000C4EF0CF0C6EF0CF0D5EF0CF0D8901E347D
:10199000D96E1F34DA6E0A0ED926000EDA22010E35
:1019A000DE6E000EDD6EE2EF0CF0D8901E34D96EC4
:1019B0001F34DA6E0A0ED926000EDA22000EDE6E11
:1019C000000EDD6ED8901C361D361E4A1F2A1FBE23
:1019D000F3EF0CF01F5009E1090E1E5CD8A0F3EFE5
:1019E0000CF0F5EF0CF0B7EF0CF00AB002D07F90DE
:1019F00001D07F800CB002D07F9201D07F820EB0E8
:101A000002D0799401D0798410B002D07E9C01D0AC
:101A10007E8C12B002D0799801D0798814B002D0AF
:101A2000799A01D0798A16B002D07E9001D07E805A
:101A300018B002D07A9001D07A801AB002D07A928F
:101A400001D07A82120008500910D8B42AEF0DF0A4
:101A50002CEF0DF035EF0DF008500910D8A433EF3E
:101A60000DF035EF0DF03AEF0DF0065042EC12F0AC
:101A700087EF0DF020EE09F00850D9260950DA2240
:101A8000DE50DE10D8B447EF0DF049EF0DF064EFF3
:101A90000DF020EE09F00850D9260950DA2210EE98
:101AA00003F00850E1260950E222DE50E65CE650E1
:101AB000800A0E6EDE50800A0E58D8B062EF0DF02C
:101AC00064EF0DF087EF0DF020EE03F00850D926FB
:101AD0000950DA22DECF0AF0DDCF0BF008C0D9FFC3
:101AE00009C0DAFFDECF0CF0DDCF0DF00A500C2478
:101AF000D96E0B500D20DA6E06C0DFFF20EE03F02A
:101B00000850D9260950DA22DE2A000EDD22120002
:101B1000000E0B6E09BE91EF0DF08FEF0DF097EFF9
:101B20000DF0086C091ED8B0092A010E0B6E07BE15
:101B30009EEF0DF09CEF0DF0A4EF0DF0066C071E6C
:101B4000D8B0072A010E0B1A000E0D6E000E0C6E97
:101B500008500910D8B4AFEF0DF0B1EF0DF0D9EF88
:101B60000DF0010E0A6EB9EF0DF0D8900836093667
:101B70000A2A09AEBEEF0DF0C0EF0DF0B5EF0DF083
:101B8000D8900C360D360850065C09500758D8A07E
:101B9000CCEF0DF0CEEF0DF0D3EF0DF00850065E58
:101BA0000950075A0C80D890093208320A2EC0EF2B
:101BB0000DF00B50D8B4DFEF0DF0E1EF0DF0E5EFD5
:101BC0000DF00C6C0D1ED8B00D2A0CC006F00DC027
:101BD00007F0120055A0EFEF0DF0F1EF0DF0FBEF65
:101BE0000DF018C00FF019C010F016C011F017C09A
:101BF00012F0B1EC10F01BBE00EF0EF002EF0EF091
:101C000008EF0EF01AC01FF01BC020F00CEF0EF012
:101C1000000E206E000E1F6E000E1E6E000E1D6E5A
:101C20001EEF0EF0000E076E200E066E16C008F0B6
:101C300017C009F023EC0DF01D4A1E2A1F501D5C31
:101C40001E50800A1C6E2050800A1C58D8A02BEF12
:101C50000EF02DEF0EF012EF0EF055B032EF0EF049
:101C600034EF0EF03EEF0EF018C00FF019C010F078
:101C700016C011F017C012F0B1EC10F012008394EE
:101C8000839C82968294859285967A967A947D92A8
:101C90007D967B947B9C040E0A6E400E096E260E88
:101CA000E82EFED7092EFCD70A2EFAD700D0030E55
:101CB000B2EC0FF0D50EE82EFED700F0000E076E46
:101CC0002C0E82EC11F0D50EE82EFED700F0000E9F
:101CD000076E2C0E82EC11F0D50EE82EFED700F028
:101CE000000E076E0C0E82EC11F0D50EE82EFED71A
:101CF00000F0000E076E010E82EC11F0200E096E4E
:101D0000CA0EE82EFED7092EFCD7000E076E070E6E
:101D100082EC11F0000E076E0C0E82EC11F0120036
:101D20003DEC12F0C3EC11F0FAEC11F0D6EC11F02E
:101D3000E8EC11F02DEC12F00AEC12F0D3EC10F0FC
:101D40003FEC0EF029EC0CF031EC11F07CEC0FF0D4
:101D500046EC0FF07CEC0FF00CC013F00DC014F04B
:101D600046EC0FF00CC015F00DC016F00FEC0FF0A4
:101D7000E6EC0FF0020E68EC11F0000E0001896F26
:101D8000010E8A6F9EC18BF09FC18CF0A1C08DF0B7
:101D9000A2C08EF09DC08FF09EC090F0D4EC0EF0EB
:101DA000A2EF0EF050EF00F089C072F08AC073F01D
:101DB0007D0E0001746F0E0E756F8BC076F08CC0B7
:101DC00077F08DC078F08EC079F08FC07AF090C037
:101DD0007BF03FEC10F089C009F08AC00AF04EECAD
:101DE00011F04E0E506E1D0E4F6E0C0EE82EFED7EB
:101DF0004F2EFCD7502EFAD700D0000E076E010EE2
:101E000082EC11F0290E506E960E4F6E7F0EE82E6A
:101E1000FED74F2EFCD7502EFAD700F01200000E3E
:101E20001A6E000E196E15501324066E16501420EB
:101E3000076E000E096E020E086E88EC0DF006C0EB
:101E400017F007C018F01750C008196E1850D8A026
:101E5000E82AA8081A6E0B0E51185210D8A433EFB6
:101E60000FF035EF0FF045EF0FF0080E531807E1B4
:101E7000070E5418D8A43FEF0FF041EF0FF045EFD5
:101E80000FF0195053261A505422120080B64BEF0F
:101E90000FF04FEF0FF00E6A0E2A50EF0FF00E6AA0
:101EA0000E500F6E106A000E126E000E116E0F5063
:101EB0001010D8A45EEF0FF060EF0FF077EF0FF087
:101EC00080A665EF0FF067EF0FF077EF0FF051C0CE
:101ED00006F052C007F00E0E096E100E086EB0EC40
:101EE00011F053500624116E54500720126E11C089
:101EF0000CF012C00DF0120080B681EF0FF085EFEC
:101F00000FF00E6A0E2A86EF0FF00E6A0E500F6E5B
:101F1000106A000E126E000E116E0F041010D8A47D
:101F200094EF0FF096EF0FF0ADEF0FF080B69BEF50
:101F30000FF09DEF0FF0ADEF0FF051C006F052C063
:101F400007F00E0E096E100E086EB0EC11F0535033
:101F50000624116E54500720126E11C00CF012C0EE
:101F60000DF01200066E06A0B8EF0FF0BAEF0FF0FA
:101F7000BDEF0FF07A86BEEF0FF07A9606A2C3EFA0
:101F80000FF0C5EF0FF0C8EF0FF07A84C9EF0FF034
:101F90007A9406A4CEEF0FF0D0EF0FF0D3EF0FF04E
:101FA0007D86D4EF0FF07D9606A6D9EF0FF0DBEF1C
:101FB0000FF0DEEF0FF07D82DFEF0FF07D9236EC59
:101FC00012F01A0EE82EFED700D01200030E000108
:101FD000A119A211D8A4EFEF0FF0F1EF0FF0FDEF70
:101FE0000FF0070E9F19A011D8A4F9EF0FF0FBEF27
:101FF0000FF0FDEF0FF0514A522A0A0EA119A2115B
:10200000D8A405EF10F007EF10F014EF10F0070E52
:102010009F19A011D8A40FEF10F011EF10F014EFDA
:1020200010F05106D8A0520612006EC04DF06FC0DD
:102030004EF029EF10F06CC044F06DC045F04D0E2D
:10204000466E000E476E70C048F071C049F04CEC0F
:1020500007F04DC0F6FF4EC0F7FF000EF86E080007
:10206000F5500009D8A437EF10F039EF10F01BEF4E
:1020700010F0000E00016D6F000E6C6F1200760EF6
:1020800000017C6F000E7D6F72C07EF073C07FF028
:10209000000E826F000E816F000E886F000E876F3A
:1020A0007E0E6C6F000E6D6F74C06EF075C06FF0B9
:1020B0007C0E706F000E716F15EC10F000018151F5
:1020C0007225D96E82517321DA6E000EDF6E120016
:1020D0002E0EF66E240EF76E000EF86E01EE84F0F2
:1020E00010EE18F00900F5CFEEFFE550E150FAE1EF
:1020F00001EE64F0200EEE6AE806FDE100EE91F0DC
:102100000C0EEE6AE806FDE1556A546A536A526A9B
:10211000516A56905692000190EF0EF0010E0A6E31
:10212000200E06180710D8B498EF10F09AEF10F0B0
:10213000ADEF10F0F70E0624086EFF0E0720096EB3
:10214000095009E1050E085CD8A0A9EF10F0ABEF2B
:1021500010F0ADEF10F0000E0A6E0AC006F0076A2C
:102160001200000E156E000E146EC2EF10F013C0B8
:1021700006F0076A11C008F012C009F023EC0DF058
:10218000144A152A14500F24D96E15501020DA6EF7
:10219000DF50136E1350D8A4D0EF10F0D2EF10F030
:1021A000B7EF10F01200000E546E000E536E000ECA
:1021B000526E000E516E000E01019F6F010E9E6F58
:1021C000000E9D6F010E9C6F000E0001A06F060EA9
:1021D0009F6F070E9E6FE60E9D6F000EA26F010EA1
:1021E000A16F8086120019BE00EF11F0195006E1B0
:1021F0001804D8B0FEEF10F000EF11F00EEF11F060
:1022000018C01AF019C01BF01A1E1B1E1A4A1B2AEE
:102210001AC018F01BC019F012EF11F018C018F016
:1022200019C019F012000E0135A119EF11F01BEFC2
:1022300011F02FEF11F080A620EF11F024EF11F034
:10224000016A012A25EF11F0016A014601460146A3
:1022500080500118F70B0118806E0E0135915692CF
:10226000110052BE3CEF11F0525008E15104D8A0C9
:102270003CEF11F03EEF11F04DEF11F052BE4CEF7C
:1022800011F0525007E1050E515CD8B04AEF11F041
:102290004CEF11F04DEF11F0809612005BEF11F052
:1022A000010E076E09C0D9FF0AC0DAFFDF5082ECC9
:1022B00011F0094A0A2A09C0D9FF0AC0DAFFDF5023
:1022C000D8A465EF11F067EF11F050EF11F0120094
:1022D000096E09A06EEF11F070EF11F075EF11F0BB
:1022E000000E076E800E82EC11F009A27AEF11F059
:1022F0007CEF11F081EF11F0000E076EC00E82EC42
:1023000011F01200086E07A088EF11F08AEF11F0AB
:102310008DEF11F07B8C8EEF11F07B9C08380F0B4A
:10232000B2EC0FF00850B2EC0FF0A00E00D0E82E87
:10233000FDD71200D00E0624086EFF0E0720096E8E
:1023400009500AE10A0E085CD8A0A9EF11F0ACEF21
:1023500011F0010EADEF11F0000E066E076A1200CB
:1023600006500802F3CF0AF0F4CF0BF00650090232
:10237000F3500B2607500802F3500B260AC006F054
:102380000BC007F01200879087928194869C8198F9
:10239000819A8690829082927F907F9279947E9C9F
:1023A0007998799A7E907A907A921200868E0E01B0
:1023B000D251F80B0309D26FD351F80B0509D36F33
:1023C000D083D089D18323EC12F00E01D08F12007C
:1023D000868E0E01D251F80B0309D26FD351F80B40
:1023E0000509D36FD083D089D18123EC12F00E017F
:1023F000D08F1200D6501F0B4009D66ED688D6500B
:10240000F00B0809D66ED5880B0ED46EDB0ED36E9A
:10241000D58E120081860E0192870F015899FC0E0D
:102420005817030E5F6F60946088608E12001F0063
:102430001C001F001E001F001E001F001F001E00AA
:102440001F001E001F00F30E0E01C617C691C751D4
:10245000E00B1409C76FC68F12000E012B81298B68
:1024600021811F9BF28AF28CF28E12007B840A0E6D
:10247000E82EFED700D07B941200809688967C8E42
:06248000849E1200120010
:020000040020DA
:10000000FF0FFF0FFF0FFF0FFF0FFF0FFF0FFF0F80
:020000040030CA
:0C000000AAFFFFFF9FFFFFFFFFFFFFFFB5
:00000001FF
