:040000002AEF00F0F3
:060008002F8255EF08F005
:100018002F80D8CF02F0E8CF03F0E0CF04F00E0134
:1000280033AB19EF00F01BEF00F022EF00F02D4A80
:100038002E2A090ED46EC30ED36E339B04C0E0FF84
:1000480003C0E8FF02C0D8FF2F901000D0EF08F0DF
:100E00000000000000DCCFD1350000000000C0155C
:100E10003F6042A20D70A5EC363BAAB83F4F387632
:100E20003F3CAA38338CBEBF350072313F18723157
:100E30003F4CBB31330EEADDB555B38A38610B3612
:100E4000BBABAA2A3E42F1533E55326C3E05A38B02
:100E50003EABAAAA3EB76DDB3E9A99193F6042A20B
:100E60000DCAF249710000804B0000803F0000C0B5
:0F0E70003F00AAB83FC623F6B80040763F000007
:100E8000000E1C6E010E1B6E000E1E6E000E1D6EFF
:100E900005501B14076E06501C14086E07500810EE
:100EA000D8B455EF07F057EF07F066EF07F0D8908A
:100EB0001D34D96E1E34DA6E090ED926000EDA22E0
:100EC000010EDE6E000EDD6E73EF07F0D8901D345C
:100ED000D96E1E34DA6E090ED926000EDA22000E03
:100EE000DE6E000EDD6ED8901B361C361D4A1E2AA3
:100EF0001EBE84EF07F01E5009E1090E1D5CD8A04C
:100F000084EF07F086EF07F048EF07F009B002D052
:100F10007F9001D07F800BB002D07F9201D07F8282
:100F20000DB002D0799401D079840FB002D07E9CAC
:100F300001D07E8C11B002D0799801D0798813B09D
:100F400002D0799A01D0798A15B002D07E9001D072
:100F50007E8017B002D07A9001D07A8019B002D08A
:100F60007A9201D07A821200000E0A6E06BEBDEFA0
:100F700007F0BBEF07F0C3EF07F0056C061ED8B013
:100F8000062A010E0A6E08BECAEF07F0C8EF07F086
:100F9000CEEF07F0076C081ED8B0082A07500810DB
:100FA000D8B4D5EF07F0D7EF07F0FBEF07F0010E4D
:100FB000096EDFEF07F0D89007360836092A08AE29
:100FC000E4EF07F0E6EF07F0DBEF07F00750055C12
:100FD00008500658D8A0EFEF07F0F1EF07F0F5EF53
:100FE00007F00750055E0850065AD89008320732BD
:100FF000092EE6EF07F00A50D8B401EF08F003EF2E
:1010000008F007EF08F0056C061ED8B0062A05C0E8
:1010100005F006C006F01200020E2D182E10D8A4FE
:1010200014EF08F016EF08F022EF08F02B4A2C2AF4
:101030002BC005F02CC006F040EC07F0000E2E6E21
:10104000000E2D6E180E2B182C10D8A42AEF08F0C5
:101050002CEF08F032EF08F0294A2A2A000E2C6EF5
:10106000000E2B6E29C005F02AC006F0000E086E97
:10107000070E076EB4EC07F005500610D8A443EF36
:1010800008F045EF08F047EF08F0274A282A6D0ED0
:10109000291806E12A04D8A450EF08F052EF08F00E
:1010A00054EF08F0254A262A12000E0135A15BEF05
:1010B00008F05DEF08F071EF08F080A662EF08F02D
:1010C00066EF08F0016A012A67EF08F0016A01463D
:1010D0000146014680500118F70B0118806E0E0181
:1010E00035912F921100808688967C9E849EDFEC3D
:1010F00008F089EC08F0C0EC08F0AEEC08F09CECCD
:1011000008F0E9EC08F00CEC08F083EF08F02AEFA7
:1011100000F0879087928194869C8198819A86902E
:10112000829082927F907F9279947E9C7998799A2E
:101130007E907A907A921200868E0E01D251F80B30
:101140000309D26FD351F80B0509D36FD083D0892F
:10115000D181DFEC08F00E01D08F1200868E0E01D7
:10116000D251F80B0309D26FD351F80B0509D36F95
:10117000D083D089D183DFEC08F00E01D08F12002C
:10118000D6501F0B4009D66ED688D650F00B0809F2
:10119000D66ED5880B0ED46EDB0ED36ED58E1200B4
:1011A00000EE1FF0100EEE6AE806FDE12F902F9280
:1011B000000EF86E0E0EF76E000173EF08F0F30EDE
:1011C0000E01C617C691C751E00B1409C76FC68F31
:1011D00012000E012B81298B21811F9BF28AF28C38
:0411E000F28E120079
:020000040020DA
:10000000FF0FFF0FFF0FFF0FFF0FFF0FFF0FFF0F80
:020000040030CA
:0C000000AAFFFFFF9FFFFFFFFFFFFFFFB5
:00000001FF
